{
  "contractName": "MainContract",
  "abi": [
    {
      "anonymous": false,
      "inputs": [
        {
          "indexed": true,
          "internalType": "bytes32",
          "name": "role",
          "type": "bytes32"
        },
        {
          "indexed": true,
          "internalType": "bytes32",
          "name": "previousAdminRole",
          "type": "bytes32"
        },
        {
          "indexed": true,
          "internalType": "bytes32",
          "name": "newAdminRole",
          "type": "bytes32"
        }
      ],
      "name": "RoleAdminChanged",
      "type": "event"
    },
    {
      "anonymous": false,
      "inputs": [
        {
          "indexed": true,
          "internalType": "bytes32",
          "name": "role",
          "type": "bytes32"
        },
        {
          "indexed": true,
          "internalType": "address",
          "name": "account",
          "type": "address"
        },
        {
          "indexed": true,
          "internalType": "address",
          "name": "sender",
          "type": "address"
        }
      ],
      "name": "RoleGranted",
      "type": "event"
    },
    {
      "anonymous": false,
      "inputs": [
        {
          "indexed": true,
          "internalType": "bytes32",
          "name": "role",
          "type": "bytes32"
        },
        {
          "indexed": true,
          "internalType": "address",
          "name": "account",
          "type": "address"
        },
        {
          "indexed": true,
          "internalType": "address",
          "name": "sender",
          "type": "address"
        }
      ],
      "name": "RoleRevoked",
      "type": "event"
    },
    {
      "inputs": [],
      "name": "CELLAR_ROLE",
      "outputs": [
        {
          "internalType": "bytes32",
          "name": "",
          "type": "bytes32"
        }
      ],
      "stateMutability": "view",
      "type": "function",
      "constant": true
    },
    {
      "inputs": [],
      "name": "DEFAULT_ADMIN_ROLE",
      "outputs": [
        {
          "internalType": "bytes32",
          "name": "",
          "type": "bytes32"
        }
      ],
      "stateMutability": "view",
      "type": "function",
      "constant": true
    },
    {
      "inputs": [],
      "name": "SHOP_ROLE",
      "outputs": [
        {
          "internalType": "bytes32",
          "name": "",
          "type": "bytes32"
        }
      ],
      "stateMutability": "view",
      "type": "function",
      "constant": true
    },
    {
      "inputs": [
        {
          "internalType": "address",
          "name": "",
          "type": "address"
        }
      ],
      "name": "cellars",
      "outputs": [
        {
          "internalType": "string",
          "name": "name",
          "type": "string"
        },
        {
          "internalType": "string",
          "name": "description",
          "type": "string"
        }
      ],
      "stateMutability": "view",
      "type": "function",
      "constant": true
    },
    {
      "inputs": [
        {
          "internalType": "bytes32",
          "name": "role",
          "type": "bytes32"
        }
      ],
      "name": "getRoleAdmin",
      "outputs": [
        {
          "internalType": "bytes32",
          "name": "",
          "type": "bytes32"
        }
      ],
      "stateMutability": "view",
      "type": "function",
      "constant": true
    },
    {
      "inputs": [
        {
          "internalType": "bytes32",
          "name": "role",
          "type": "bytes32"
        },
        {
          "internalType": "address",
          "name": "account",
          "type": "address"
        }
      ],
      "name": "grantRole",
      "outputs": [],
      "stateMutability": "nonpayable",
      "type": "function"
    },
    {
      "inputs": [
        {
          "internalType": "bytes32",
          "name": "role",
          "type": "bytes32"
        },
        {
          "internalType": "address",
          "name": "account",
          "type": "address"
        }
      ],
      "name": "hasRole",
      "outputs": [
        {
          "internalType": "bool",
          "name": "",
          "type": "bool"
        }
      ],
      "stateMutability": "view",
      "type": "function",
      "constant": true
    },
    {
      "inputs": [
        {
          "internalType": "bytes32",
          "name": "role",
          "type": "bytes32"
        },
        {
          "internalType": "address",
          "name": "account",
          "type": "address"
        }
      ],
      "name": "renounceRole",
      "outputs": [],
      "stateMutability": "nonpayable",
      "type": "function"
    },
    {
      "inputs": [
        {
          "internalType": "bytes32",
          "name": "role",
          "type": "bytes32"
        },
        {
          "internalType": "address",
          "name": "account",
          "type": "address"
        }
      ],
      "name": "revokeRole",
      "outputs": [],
      "stateMutability": "nonpayable",
      "type": "function"
    },
    {
      "inputs": [
        {
          "internalType": "address",
          "name": "",
          "type": "address"
        }
      ],
      "name": "shops",
      "outputs": [
        {
          "internalType": "string",
          "name": "name",
          "type": "string"
        },
        {
          "internalType": "string",
          "name": "description",
          "type": "string"
        }
      ],
      "stateMutability": "view",
      "type": "function",
      "constant": true
    },
    {
      "inputs": [
        {
          "internalType": "bytes4",
          "name": "interfaceId",
          "type": "bytes4"
        }
      ],
      "name": "supportsInterface",
      "outputs": [
        {
          "internalType": "bool",
          "name": "",
          "type": "bool"
        }
      ],
      "stateMutability": "view",
      "type": "function",
      "constant": true
    },
    {
      "inputs": [
        {
          "internalType": "string",
          "name": "_name",
          "type": "string"
        },
        {
          "internalType": "string",
          "name": "_description",
          "type": "string"
        }
      ],
      "name": "addNewCellar",
      "outputs": [
        {
          "components": [
            {
              "internalType": "string",
              "name": "name",
              "type": "string"
            },
            {
              "internalType": "string",
              "name": "description",
              "type": "string"
            }
          ],
          "internalType": "struct MainContract.Cellar",
          "name": "",
          "type": "tuple"
        }
      ],
      "stateMutability": "nonpayable",
      "type": "function"
    },
    {
      "inputs": [
        {
          "internalType": "string",
          "name": "_name",
          "type": "string"
        },
        {
          "internalType": "string",
          "name": "_description",
          "type": "string"
        }
      ],
      "name": "addNewShop",
      "outputs": [
        {
          "components": [
            {
              "internalType": "string",
              "name": "name",
              "type": "string"
            },
            {
              "internalType": "string",
              "name": "description",
              "type": "string"
            }
          ],
          "internalType": "struct MainContract.Shop",
          "name": "",
          "type": "tuple"
        }
      ],
      "stateMutability": "nonpayable",
      "type": "function"
    },
    {
      "inputs": [],
      "name": "getCurrentCellar",
      "outputs": [
        {
          "components": [
            {
              "internalType": "string",
              "name": "name",
              "type": "string"
            },
            {
              "internalType": "string",
              "name": "description",
              "type": "string"
            }
          ],
          "internalType": "struct MainContract.Cellar",
          "name": "",
          "type": "tuple"
        }
      ],
      "stateMutability": "view",
      "type": "function",
      "constant": true
    },
    {
      "inputs": [],
      "name": "getCurrentShop",
      "outputs": [
        {
          "components": [
            {
              "internalType": "string",
              "name": "name",
              "type": "string"
            },
            {
              "internalType": "string",
              "name": "description",
              "type": "string"
            }
          ],
          "internalType": "struct MainContract.Shop",
          "name": "",
          "type": "tuple"
        }
      ],
      "stateMutability": "view",
      "type": "function",
      "constant": true
    },
    {
      "inputs": [],
      "name": "checkIfCellarExist",
      "outputs": [
        {
          "internalType": "bool",
          "name": "",
          "type": "bool"
        }
      ],
      "stateMutability": "view",
      "type": "function",
      "constant": true
    },
    {
      "inputs": [],
      "name": "checkIfShopExist",
      "outputs": [
        {
          "internalType": "bool",
          "name": "",
          "type": "bool"
        }
      ],
      "stateMutability": "view",
      "type": "function",
      "constant": true
    },
    {
      "inputs": [],
      "name": "getSender",
      "outputs": [
        {
          "internalType": "address",
          "name": "",
          "type": "address"
        }
      ],
      "stateMutability": "view",
      "type": "function",
      "constant": true
    }
  ],
  "bytecode": "0x608060405234801561001057600080fd5b50611ffd806100206000396000f3fe608060405234801561001057600080fd5b50600436106101165760003560e01c806348fc8105116100a2578063a217fddf11610071578063a217fddf1461030a578063c1d6462114610328578063d547741f14610346578063ef56913c14610362578063f35af4c61461039357610116565b806348fc81051461026e5780635e01eb5a1461028c57806367e05555146102aa57806391d14854146102da57610116565b8063248a9ca3116100e9578063248a9ca3146101b75780632dca1fcc146101e75780632f2ff15d1461021857806335365dc71461023457806336568abe1461025257610116565b806301d0216c1461011b57806301d886ca1461013957806301ffc9a7146101695780631288d7c714610199575b600080fd5b6101236103b1565b6040516101309190611b27565b60405180910390f35b610153600480360381019061014e919061170d565b6103d5565b6040516101609190611c5d565b60405180910390f35b610183600480360381019061017e91906116e4565b61055e565b6040516101909190611b0c565b60405180910390f35b6101a16105d8565b6040516101ae9190611c5d565b60405180910390f35b6101d160048036038101906101cc919061167f565b610753565b6040516101de9190611b27565b60405180910390f35b61020160048036038101906101fc9190611656565b610772565b60405161020f929190611b64565b60405180910390f35b610232600480360381019061022d91906116a8565b6108a6565b005b61023c6108cf565b6040516102499190611c3b565b60405180910390f35b61026c600480360381019061026791906116a8565b610a4a565b005b610276610acd565b6040516102839190611b0c565b60405180910390f35b610294610b25565b6040516102a19190611af1565b60405180910390f35b6102c460048036038101906102bf919061170d565b610b2d565b6040516102d19190611c3b565b60405180910390f35b6102f460048036038101906102ef91906116a8565b610cb6565b6040516103019190611b0c565b60405180910390f35b610312610d20565b60405161031f9190611b27565b60405180910390f35b610330610d27565b60405161033d9190611b27565b60405180910390f35b610360600480360381019061035b91906116a8565b610d4b565b005b61037c60048036038101906103779190611656565b610d74565b60405161038a929190611b64565b60405180910390f35b61039b610ea8565b6040516103a89190611b0c565b60405180910390f35b7f1f0426c2589e5c3ea5f5996e2a4371ca21edd86514b6679c9dd135d7c85b28bf81565b6103dd6114d8565b600083511180156103ef575060008251115b61042e576040517f08c379a000000000000000000000000000000000000000000000000000000000815260040161042590611bfb565b60405180910390fd5b610436610ea8565b15610476576040517f08c379a000000000000000000000000000000000000000000000000000000000815260040161046d90611bbb565b60405180910390fd5b82600260003373ffffffffffffffffffffffffffffffffffffffff1673ffffffffffffffffffffffffffffffffffffffff16815260200190815260200160002060000190805190602001906104cc9291906114f2565b5081600260003373ffffffffffffffffffffffffffffffffffffffff1673ffffffffffffffffffffffffffffffffffffffff16815260200190815260200160002060010190805190602001906105239291906114f2565b5061054e7f1f0426c2589e5c3ea5f5996e2a4371ca21edd86514b6679c9dd135d7c85b28bf33610f00565b6105566105d8565b905092915050565b60007f7965db0b000000000000000000000000000000000000000000000000000000007bffffffffffffffffffffffffffffffffffffffffffffffffffffffff1916827bffffffffffffffffffffffffffffffffffffffffffffffffffffffff191614806105d157506105d082610f0e565b5b9050919050565b6105e06114d8565b600260003373ffffffffffffffffffffffffffffffffffffffff1673ffffffffffffffffffffffffffffffffffffffff16815260200190815260200160002060405180604001604052908160008201805461063a90611eb2565b80601f016020809104026020016040519081016040528092919081815260200182805461066690611eb2565b80156106b35780601f10610688576101008083540402835291602001916106b3565b820191906000526020600020905b81548152906001019060200180831161069657829003601f168201915b505050505081526020016001820180546106cc90611eb2565b80601f01602080910402602001604051908101604052809291908181526020018280546106f890611eb2565b80156107455780601f1061071a57610100808354040283529160200191610745565b820191906000526020600020905b81548152906001019060200180831161072857829003601f168201915b505050505081525050905090565b6000806000838152602001908152602001600020600101549050919050565b600260205280600052604060002060009150905080600001805461079590611eb2565b80601f01602080910402602001604051908101604052809291908181526020018280546107c190611eb2565b801561080e5780601f106107e35761010080835404028352916020019161080e565b820191906000526020600020905b8154815290600101906020018083116107f157829003601f168201915b50505050509080600101805461082390611eb2565b80601f016020809104026020016040519081016040528092919081815260200182805461084f90611eb2565b801561089c5780601f106108715761010080835404028352916020019161089c565b820191906000526020600020905b81548152906001019060200180831161087f57829003601f168201915b5050505050905082565b6108af82610753565b6108c0816108bb610f78565b610f80565b6108ca838361101d565b505050565b6108d7611578565b600160003373ffffffffffffffffffffffffffffffffffffffff1673ffffffffffffffffffffffffffffffffffffffff16815260200190815260200160002060405180604001604052908160008201805461093190611eb2565b80601f016020809104026020016040519081016040528092919081815260200182805461095d90611eb2565b80156109aa5780601f1061097f576101008083540402835291602001916109aa565b820191906000526020600020905b81548152906001019060200180831161098d57829003601f168201915b505050505081526020016001820180546109c390611eb2565b80601f01602080910402602001604051908101604052809291908181526020018280546109ef90611eb2565b8015610a3c5780601f10610a1157610100808354040283529160200191610a3c565b820191906000526020600020905b815481529060010190602001808311610a1f57829003601f168201915b505050505081525050905090565b610a52610f78565b73ffffffffffffffffffffffffffffffffffffffff168173ffffffffffffffffffffffffffffffffffffffff1614610abf576040517f08c379a0000000000000000000000000000000000000000000000000000000008152600401610ab690611c1b565b60405180910390fd5b610ac982826110fd565b5050565b600080600160003373ffffffffffffffffffffffffffffffffffffffff1673ffffffffffffffffffffffffffffffffffffffff1681526020019081526020016000206000018054610b1d90611eb2565b905011905090565b600033905090565b610b35611578565b60008351118015610b47575060008251115b610b86576040517f08c379a0000000000000000000000000000000000000000000000000000000008152600401610b7d90611bfb565b60405180910390fd5b610b8e610acd565b15610bce576040517f08c379a0000000000000000000000000000000000000000000000000000000008152600401610bc590611bdb565b60405180910390fd5b82600160003373ffffffffffffffffffffffffffffffffffffffff1673ffffffffffffffffffffffffffffffffffffffff1681526020019081526020016000206000019080519060200190610c249291906114f2565b5081600160003373ffffffffffffffffffffffffffffffffffffffff1673ffffffffffffffffffffffffffffffffffffffff1681526020019081526020016000206001019080519060200190610c7b9291906114f2565b50610ca67f42451c008b29b15124241bf618128eecdee98a1ff4fca709bae5f1c1ad92621a33610f00565b610cae6108cf565b905092915050565b600080600084815260200190815260200160002060000160008373ffffffffffffffffffffffffffffffffffffffff1673ffffffffffffffffffffffffffffffffffffffff16815260200190815260200160002060009054906101000a900460ff16905092915050565b6000801b81565b7f42451c008b29b15124241bf618128eecdee98a1ff4fca709bae5f1c1ad92621a81565b610d5482610753565b610d6581610d60610f78565b610f80565b610d6f83836110fd565b505050565b6001602052806000526040600020600091509050806000018054610d9790611eb2565b80601f0160208091040260200160405190810160405280929190818152602001828054610dc390611eb2565b8015610e105780601f10610de557610100808354040283529160200191610e10565b820191906000526020600020905b815481529060010190602001808311610df357829003601f168201915b505050505090806001018054610e2590611eb2565b80601f0160208091040260200160405190810160405280929190818152602001828054610e5190611eb2565b8015610e9e5780601f10610e7357610100808354040283529160200191610e9e565b820191906000526020600020905b815481529060010190602001808311610e8157829003601f168201915b5050505050905082565b600080600260003373ffffffffffffffffffffffffffffffffffffffff1673ffffffffffffffffffffffffffffffffffffffff1681526020019081526020016000206000018054610ef890611eb2565b905011905090565b610f0a828261101d565b5050565b60007f01ffc9a7000000000000000000000000000000000000000000000000000000007bffffffffffffffffffffffffffffffffffffffffffffffffffffffff1916827bffffffffffffffffffffffffffffffffffffffffffffffffffffffff1916149050919050565b600033905090565b610f8a8282610cb6565b61101957610faf8173ffffffffffffffffffffffffffffffffffffffff1660146111de565b610fbd8360001c60206111de565b604051602001610fce929190611ab7565b6040516020818303038152906040526040517f08c379a00000000000000000000000000000000000000000000000000000000081526004016110109190611b42565b60405180910390fd5b5050565b6110278282610cb6565b6110f957600160008084815260200190815260200160002060000160008373ffffffffffffffffffffffffffffffffffffffff1673ffffffffffffffffffffffffffffffffffffffff16815260200190815260200160002060006101000a81548160ff02191690831515021790555061109e610f78565b73ffffffffffffffffffffffffffffffffffffffff168173ffffffffffffffffffffffffffffffffffffffff16837f2f8788117e7eff1d82e926ec794901d17c78024a50270940304540a733656f0d60405160405180910390a45b5050565b6111078282610cb6565b156111da57600080600084815260200190815260200160002060000160008373ffffffffffffffffffffffffffffffffffffffff1673ffffffffffffffffffffffffffffffffffffffff16815260200190815260200160002060006101000a81548160ff02191690831515021790555061117f610f78565b73ffffffffffffffffffffffffffffffffffffffff168173ffffffffffffffffffffffffffffffffffffffff16837ff6391f5c32d9c69d2a47ea670b442974b53935d1edc7fd64eb21e047a839171b60405160405180910390a45b5050565b6060600060028360026111f19190611d6e565b6111fb9190611d18565b67ffffffffffffffff81111561123a577f4e487b7100000000000000000000000000000000000000000000000000000000600052604160045260246000fd5b6040519080825280601f01601f19166020018201604052801561126c5781602001600182028036833780820191505090505b5090507f3000000000000000000000000000000000000000000000000000000000000000816000815181106112ca577f4e487b7100000000000000000000000000000000000000000000000000000000600052603260045260246000fd5b60200101907effffffffffffffffffffffffffffffffffffffffffffffffffffffffffffff1916908160001a9053507f780000000000000000000000000000000000000000000000000000000000000081600181518110611354577f4e487b7100000000000000000000000000000000000000000000000000000000600052603260045260246000fd5b60200101907effffffffffffffffffffffffffffffffffffffffffffffffffffffffffffff1916908160001a905350600060018460026113949190611d6e565b61139e9190611d18565b90505b600181111561148a577f3031323334353637383961626364656600000000000000000000000000000000600f861660108110611406577f4e487b7100000000000000000000000000000000000000000000000000000000600052603260045260246000fd5b1a60f81b828281518110611443577f4e487b7100000000000000000000000000000000000000000000000000000000600052603260045260246000fd5b60200101907effffffffffffffffffffffffffffffffffffffffffffffffffffffffffffff1916908160001a905350600485901c94508061148390611e88565b90506113a1565b50600084146114ce576040517f08c379a00000000000000000000000000000000000000000000000000000000081526004016114c590611b9b565b60405180910390fd5b8091505092915050565b604051806040016040528060608152602001606081525090565b8280546114fe90611eb2565b90600052602060002090601f0160209004810192826115205760008555611567565b82601f1061153957805160ff1916838001178555611567565b82800160010185558215611567579182015b8281111561156657825182559160200191906001019061154b565b5b5090506115749190611592565b5090565b604051806040016040528060608152602001606081525090565b5b808211156115ab576000816000905550600101611593565b5090565b60006115c26115bd84611cb0565b611c7f565b9050828152602081018484840111156115da57600080fd5b6115e5848285611e46565b509392505050565b6000813590506115fc81611f82565b92915050565b60008135905061161181611f99565b92915050565b60008135905061162681611fb0565b92915050565b600082601f83011261163d57600080fd5b813561164d8482602086016115af565b91505092915050565b60006020828403121561166857600080fd5b6000611676848285016115ed565b91505092915050565b60006020828403121561169157600080fd5b600061169f84828501611602565b91505092915050565b600080604083850312156116bb57600080fd5b60006116c985828601611602565b92505060206116da858286016115ed565b9150509250929050565b6000602082840312156116f657600080fd5b600061170484828501611617565b91505092915050565b6000806040838503121561172057600080fd5b600083013567ffffffffffffffff81111561173a57600080fd5b6117468582860161162c565b925050602083013567ffffffffffffffff81111561176357600080fd5b61176f8582860161162c565b9150509250929050565b61178281611dc8565b82525050565b61179181611dda565b82525050565b6117a081611de6565b82525050565b60006117b182611ce0565b6117bb8185611ceb565b93506117cb818560208601611e55565b6117d481611f71565b840191505092915050565b60006117ea82611ce0565b6117f48185611cfc565b9350611804818560208601611e55565b61180d81611f71565b840191505092915050565b600061182382611ce0565b61182d8185611d0d565b935061183d818560208601611e55565b80840191505092915050565b6000611856602083611cfc565b91507f537472696e67733a20686578206c656e67746820696e73756666696369656e746000830152602082019050919050565b6000611896601283611cfc565b91507f53686f7020416c726561647920457869737400000000000000000000000000006000830152602082019050919050565b60006118d6601483611cfc565b91507f43656c6c617220416c72656164792045786973740000000000000000000000006000830152602082019050919050565b6000611916601783611d0d565b91507f416363657373436f6e74726f6c3a206163636f756e74200000000000000000006000830152601782019050919050565b6000611956601b83611cfc565b91507f4e616d6520616e6420646573632063616e7420626520656d70747900000000006000830152602082019050919050565b6000611996601183611d0d565b91507f206973206d697373696e6720726f6c65200000000000000000000000000000006000830152601182019050919050565b60006119d6602f83611cfc565b91507f416363657373436f6e74726f6c3a2063616e206f6e6c792072656e6f756e636560008301527f20726f6c657320666f722073656c6600000000000000000000000000000000006020830152604082019050919050565b60006040830160008301518482036000860152611a4c82826117a6565b91505060208301518482036020860152611a6682826117a6565b9150508091505092915050565b60006040830160008301518482036000860152611a9082826117a6565b91505060208301518482036020860152611aaa82826117a6565b9150508091505092915050565b6000611ac282611909565b9150611ace8285611818565b9150611ad982611989565b9150611ae58284611818565b91508190509392505050565b6000602082019050611b066000830184611779565b92915050565b6000602082019050611b216000830184611788565b92915050565b6000602082019050611b3c6000830184611797565b92915050565b60006020820190508181036000830152611b5c81846117df565b905092915050565b60006040820190508181036000830152611b7e81856117df565b90508181036020830152611b9281846117df565b90509392505050565b60006020820190508181036000830152611bb481611849565b9050919050565b60006020820190508181036000830152611bd481611889565b9050919050565b60006020820190508181036000830152611bf4816118c9565b9050919050565b60006020820190508181036000830152611c1481611949565b9050919050565b60006020820190508181036000830152611c34816119c9565b9050919050565b60006020820190508181036000830152611c558184611a2f565b905092915050565b60006020820190508181036000830152611c778184611a73565b905092915050565b6000604051905081810181811067ffffffffffffffff82111715611ca657611ca5611f42565b5b8060405250919050565b600067ffffffffffffffff821115611ccb57611cca611f42565b5b601f19601f8301169050602081019050919050565b600081519050919050565b600082825260208201905092915050565b600082825260208201905092915050565b600081905092915050565b6000611d2382611e3c565b9150611d2e83611e3c565b9250827fffffffffffffffffffffffffffffffffffffffffffffffffffffffffffffffff03821115611d6357611d62611ee4565b5b828201905092915050565b6000611d7982611e3c565b9150611d8483611e3c565b9250817fffffffffffffffffffffffffffffffffffffffffffffffffffffffffffffffff0483118215151615611dbd57611dbc611ee4565b5b828202905092915050565b6000611dd382611e1c565b9050919050565b60008115159050919050565b6000819050919050565b60007fffffffff0000000000000000000000000000000000000000000000000000000082169050919050565b600073ffffffffffffffffffffffffffffffffffffffff82169050919050565b6000819050919050565b82818337600083830152505050565b60005b83811015611e73578082015181840152602081019050611e58565b83811115611e82576000848401525b50505050565b6000611e9382611e3c565b91506000821415611ea757611ea6611ee4565b5b600182039050919050565b60006002820490506001821680611eca57607f821691505b60208210811415611ede57611edd611f13565b5b50919050565b7f4e487b7100000000000000000000000000000000000000000000000000000000600052601160045260246000fd5b7f4e487b7100000000000000000000000000000000000000000000000000000000600052602260045260246000fd5b7f4e487b7100000000000000000000000000000000000000000000000000000000600052604160045260246000fd5b6000601f19601f8301169050919050565b611f8b81611dc8565b8114611f9657600080fd5b50565b611fa281611de6565b8114611fad57600080fd5b50565b611fb981611df0565b8114611fc457600080fd5b5056fea26469706673582212203131d8bd394da666dc79a309f58da1ee5f31ffcbb762cb93ac99873a65f05c1e64736f6c63430008000033",
  "immutableReferences": {},
  "source": "// SPDX-License-Identifier: GPL-3.0\n\npragma solidity 0.8.0;\n\nimport \"@openzeppelin/contracts/access/AccessControl.sol\";\n\ncontract MainContract is AccessControl {\n    struct Cellar {\n        string name;\n        string description;\n    }\n\n    struct Shop {\n        string name;\n        string description;\n    }\n\n    bytes32 public constant CELLAR_ROLE = keccak256(\"CELLAR_ROLE\");\n    bytes32 public constant SHOP_ROLE = keccak256(\"SHOP_ROLE\");\n\n    mapping(address => Cellar) public cellars;\n    mapping(address => Shop) public shops;\n\n    modifier onlyCellar() {\n        require(hasRole(CELLAR_ROLE, msg.sender), \"Only Cellar\");\n        _;\n    }\n\n    modifier onlyShop() {\n        require(hasRole(SHOP_ROLE, msg.sender), \"Only Shop\");\n        _;\n    }\n\n    function addNewCellar(string memory _name, string memory _description)\n        public\n        returns (Cellar memory)\n    {\n        require(bytes(_name).length >0 && bytes(_description).length >0 , \"Name and desc cant be empty\");\n        require(!checkIfCellarExist(), \"Cellar Already Exist\");\n        cellars[msg.sender].name = _name;\n        cellars[msg.sender].description = _description;\n        _setupRole(CELLAR_ROLE, msg.sender);\n        return getCurrentCellar();\n    }\n\n    function addNewShop(string memory _name, string memory _description)\n        public\n        returns (Shop memory)\n    {\n        require(bytes(_name).length >0 && bytes(_description).length >0 , \"Name and desc cant be empty\");\n        require(!checkIfShopExist(), \"Shop Already Exist\");\n        shops[msg.sender].name = _name;\n        shops[msg.sender].description = _description;\n        _setupRole(SHOP_ROLE, msg.sender);\n        return getCurrentShop();\n    }\n\n    function getCurrentCellar() public view returns (Cellar memory) {\n        return cellars[msg.sender];\n    }\n\n    function getCurrentShop() public view returns (Shop memory) {\n        return shops[msg.sender];\n    }\n\n    function checkIfCellarExist() public view returns (bool) {\n        return bytes(cellars[msg.sender].name).length > 0;\n    }\n\n    function checkIfShopExist() public view returns (bool) {\n        return bytes(shops[msg.sender].name).length > 0;\n    }\n\n    function getSender() public view returns (address) {\n        return msg.sender;\n    }\n}\n",
  "sourcePath": "D:\\Projects\\BSM\\safewine\\contracts\\MainContract.sol",
  "compiler": {
    "name": "solc",
    "version": "0.8.0+commit.c7dfd78e.Emscripten.clang"
  },
  "schemaVersion": "3.4.4",
  "updatedAt": "2022-02-23T21:36:17.174Z",
  "networkType": "ethereum",
  "devdoc": {
    "kind": "dev",
    "methods": {
      "getRoleAdmin(bytes32)": {
        "details": "Returns the admin role that controls `role`. See {grantRole} and {revokeRole}. To change a role's admin, use {_setRoleAdmin}."
      },
      "grantRole(bytes32,address)": {
        "details": "Grants `role` to `account`. If `account` had not been already granted `role`, emits a {RoleGranted} event. Requirements: - the caller must have ``role``'s admin role."
      },
      "hasRole(bytes32,address)": {
        "details": "Returns `true` if `account` has been granted `role`."
      },
      "renounceRole(bytes32,address)": {
        "details": "Revokes `role` from the calling account. Roles are often managed via {grantRole} and {revokeRole}: this function's purpose is to provide a mechanism for accounts to lose their privileges if they are compromised (such as when a trusted device is misplaced). If the calling account had been revoked `role`, emits a {RoleRevoked} event. Requirements: - the caller must be `account`."
      },
      "revokeRole(bytes32,address)": {
        "details": "Revokes `role` from `account`. If `account` had been granted `role`, emits a {RoleRevoked} event. Requirements: - the caller must have ``role``'s admin role."
      },
      "supportsInterface(bytes4)": {
        "details": "See {IERC165-supportsInterface}."
      }
    },
    "version": 1
  },
  "userdoc": {
    "kind": "user",
    "methods": {},
    "version": 1
  }
}