{
  "contractName": "NFT",
  "abi": [
    {
      "inputs": [],
      "stateMutability": "nonpayable",
      "type": "constructor"
    },
    {
      "anonymous": false,
      "inputs": [
        {
          "indexed": true,
          "internalType": "address",
          "name": "owner",
          "type": "address"
        },
        {
          "indexed": true,
          "internalType": "address",
          "name": "approved",
          "type": "address"
        },
        {
          "indexed": true,
          "internalType": "uint256",
          "name": "tokenId",
          "type": "uint256"
        }
      ],
      "name": "Approval",
      "type": "event"
    },
    {
      "anonymous": false,
      "inputs": [
        {
          "indexed": true,
          "internalType": "address",
          "name": "owner",
          "type": "address"
        },
        {
          "indexed": true,
          "internalType": "address",
          "name": "operator",
          "type": "address"
        },
        {
          "indexed": false,
          "internalType": "bool",
          "name": "approved",
          "type": "bool"
        }
      ],
      "name": "ApprovalForAll",
      "type": "event"
    },
    {
      "anonymous": false,
      "inputs": [
        {
          "indexed": false,
          "internalType": "uint256",
          "name": "id",
          "type": "uint256"
        },
        {
          "indexed": false,
          "internalType": "string",
          "name": "tokenURI",
          "type": "string"
        },
        {
          "indexed": false,
          "internalType": "uint256",
          "name": "mintedAt",
          "type": "uint256"
        },
        {
          "indexed": false,
          "internalType": "address",
          "name": "mintedBy",
          "type": "address"
        }
      ],
      "name": "Mint",
      "type": "event"
    },
    {
      "anonymous": false,
      "inputs": [
        {
          "indexed": false,
          "internalType": "address",
          "name": "seller",
          "type": "address"
        },
        {
          "indexed": false,
          "internalType": "address",
          "name": "to",
          "type": "address"
        },
        {
          "indexed": false,
          "internalType": "uint256",
          "name": "id",
          "type": "uint256"
        }
      ],
      "name": "Sell",
      "type": "event"
    },
    {
      "anonymous": false,
      "inputs": [
        {
          "indexed": true,
          "internalType": "address",
          "name": "from",
          "type": "address"
        },
        {
          "indexed": true,
          "internalType": "address",
          "name": "to",
          "type": "address"
        },
        {
          "indexed": true,
          "internalType": "uint256",
          "name": "tokenId",
          "type": "uint256"
        }
      ],
      "name": "Transfer",
      "type": "event"
    },
    {
      "inputs": [
        {
          "internalType": "address",
          "name": "to",
          "type": "address"
        },
        {
          "internalType": "uint256",
          "name": "tokenId",
          "type": "uint256"
        }
      ],
      "name": "approve",
      "outputs": [],
      "stateMutability": "nonpayable",
      "type": "function"
    },
    {
      "inputs": [
        {
          "internalType": "address",
          "name": "owner",
          "type": "address"
        }
      ],
      "name": "balanceOf",
      "outputs": [
        {
          "internalType": "uint256",
          "name": "",
          "type": "uint256"
        }
      ],
      "stateMutability": "view",
      "type": "function",
      "constant": true
    },
    {
      "inputs": [
        {
          "internalType": "uint256",
          "name": "tokenId",
          "type": "uint256"
        }
      ],
      "name": "getApproved",
      "outputs": [
        {
          "internalType": "address",
          "name": "",
          "type": "address"
        }
      ],
      "stateMutability": "view",
      "type": "function",
      "constant": true
    },
    {
      "inputs": [
        {
          "internalType": "address",
          "name": "owner",
          "type": "address"
        },
        {
          "internalType": "address",
          "name": "operator",
          "type": "address"
        }
      ],
      "name": "isApprovedForAll",
      "outputs": [
        {
          "internalType": "bool",
          "name": "",
          "type": "bool"
        }
      ],
      "stateMutability": "view",
      "type": "function",
      "constant": true
    },
    {
      "inputs": [],
      "name": "name",
      "outputs": [
        {
          "internalType": "string",
          "name": "",
          "type": "string"
        }
      ],
      "stateMutability": "view",
      "type": "function",
      "constant": true
    },
    {
      "inputs": [
        {
          "internalType": "uint256",
          "name": "tokenId",
          "type": "uint256"
        }
      ],
      "name": "ownerOf",
      "outputs": [
        {
          "internalType": "address",
          "name": "",
          "type": "address"
        }
      ],
      "stateMutability": "view",
      "type": "function",
      "constant": true
    },
    {
      "inputs": [
        {
          "internalType": "address",
          "name": "from",
          "type": "address"
        },
        {
          "internalType": "address",
          "name": "to",
          "type": "address"
        },
        {
          "internalType": "uint256",
          "name": "tokenId",
          "type": "uint256"
        }
      ],
      "name": "safeTransferFrom",
      "outputs": [],
      "stateMutability": "nonpayable",
      "type": "function"
    },
    {
      "inputs": [
        {
          "internalType": "address",
          "name": "from",
          "type": "address"
        },
        {
          "internalType": "address",
          "name": "to",
          "type": "address"
        },
        {
          "internalType": "uint256",
          "name": "tokenId",
          "type": "uint256"
        },
        {
          "internalType": "bytes",
          "name": "_data",
          "type": "bytes"
        }
      ],
      "name": "safeTransferFrom",
      "outputs": [],
      "stateMutability": "nonpayable",
      "type": "function"
    },
    {
      "inputs": [
        {
          "internalType": "address",
          "name": "operator",
          "type": "address"
        },
        {
          "internalType": "bool",
          "name": "approved",
          "type": "bool"
        }
      ],
      "name": "setApprovalForAll",
      "outputs": [],
      "stateMutability": "nonpayable",
      "type": "function"
    },
    {
      "inputs": [
        {
          "internalType": "bytes4",
          "name": "interfaceId",
          "type": "bytes4"
        }
      ],
      "name": "supportsInterface",
      "outputs": [
        {
          "internalType": "bool",
          "name": "",
          "type": "bool"
        }
      ],
      "stateMutability": "view",
      "type": "function",
      "constant": true
    },
    {
      "inputs": [],
      "name": "symbol",
      "outputs": [
        {
          "internalType": "string",
          "name": "",
          "type": "string"
        }
      ],
      "stateMutability": "view",
      "type": "function",
      "constant": true
    },
    {
      "inputs": [
        {
          "internalType": "uint256",
          "name": "",
          "type": "uint256"
        }
      ],
      "name": "tokenIndexIsValid",
      "outputs": [
        {
          "internalType": "bool",
          "name": "",
          "type": "bool"
        }
      ],
      "stateMutability": "view",
      "type": "function",
      "constant": true
    },
    {
      "inputs": [
        {
          "internalType": "uint256",
          "name": "tokenId",
          "type": "uint256"
        }
      ],
      "name": "tokenURI",
      "outputs": [
        {
          "internalType": "string",
          "name": "",
          "type": "string"
        }
      ],
      "stateMutability": "view",
      "type": "function",
      "constant": true
    },
    {
      "inputs": [
        {
          "internalType": "address",
          "name": "from",
          "type": "address"
        },
        {
          "internalType": "address",
          "name": "to",
          "type": "address"
        },
        {
          "internalType": "uint256",
          "name": "tokenId",
          "type": "uint256"
        }
      ],
      "name": "transferFrom",
      "outputs": [],
      "stateMutability": "nonpayable",
      "type": "function"
    },
    {
      "inputs": [
        {
          "internalType": "uint256",
          "name": "_tokenId",
          "type": "uint256"
        }
      ],
      "name": "getOwnerOf",
      "outputs": [
        {
          "internalType": "address",
          "name": "",
          "type": "address"
        }
      ],
      "stateMutability": "view",
      "type": "function",
      "constant": true
    },
    {
      "inputs": [
        {
          "internalType": "address",
          "name": "_address",
          "type": "address"
        }
      ],
      "name": "getBalance",
      "outputs": [
        {
          "internalType": "uint256",
          "name": "",
          "type": "uint256"
        }
      ],
      "stateMutability": "view",
      "type": "function",
      "constant": true
    },
    {
      "inputs": [],
      "name": "totalSupply",
      "outputs": [
        {
          "internalType": "uint256",
          "name": "",
          "type": "uint256"
        }
      ],
      "stateMutability": "view",
      "type": "function",
      "constant": true
    },
    {
      "inputs": [
        {
          "internalType": "uint256",
          "name": "_tokenId",
          "type": "uint256"
        }
      ],
      "name": "isValidToken",
      "outputs": [
        {
          "internalType": "bool",
          "name": "",
          "type": "bool"
        }
      ],
      "stateMutability": "view",
      "type": "function",
      "constant": true
    },
    {
      "inputs": [
        {
          "internalType": "address",
          "name": "_owner",
          "type": "address"
        }
      ],
      "name": "tokensOfOwner",
      "outputs": [
        {
          "internalType": "uint256[]",
          "name": "",
          "type": "uint256[]"
        }
      ],
      "stateMutability": "view",
      "type": "function",
      "constant": true
    },
    {
      "inputs": [
        {
          "internalType": "uint256",
          "name": "_tokenId",
          "type": "uint256"
        }
      ],
      "name": "getTokenById",
      "outputs": [
        {
          "internalType": "uint256",
          "name": "",
          "type": "uint256"
        },
        {
          "internalType": "string",
          "name": "",
          "type": "string"
        },
        {
          "internalType": "uint256",
          "name": "",
          "type": "uint256"
        },
        {
          "internalType": "bool",
          "name": "",
          "type": "bool"
        }
      ],
      "stateMutability": "view",
      "type": "function",
      "constant": true
    },
    {
      "inputs": [
        {
          "internalType": "string",
          "name": "_tokenURI",
          "type": "string"
        }
      ],
      "name": "mint",
      "outputs": [
        {
          "internalType": "uint256",
          "name": "",
          "type": "uint256"
        }
      ],
      "stateMutability": "nonpayable",
      "type": "function"
    },
    {
      "inputs": [
        {
          "internalType": "uint256",
          "name": "_tokenId",
          "type": "uint256"
        },
        {
          "internalType": "address",
          "name": "_to",
          "type": "address"
        }
      ],
      "name": "transfer",
      "outputs": [
        {
          "internalType": "uint256",
          "name": "",
          "type": "uint256"
        }
      ],
      "stateMutability": "nonpayable",
      "type": "function"
    },
    {
      "inputs": [
        {
          "internalType": "uint256",
          "name": "_tokenId",
          "type": "uint256"
        },
        {
          "internalType": "address",
          "name": "_to",
          "type": "address"
        }
      ],
      "name": "sell",
      "outputs": [
        {
          "internalType": "uint256",
          "name": "",
          "type": "uint256"
        }
      ],
      "stateMutability": "nonpayable",
      "type": "function"
    }
  ],
  "bytecode": "0x60806040523480156200001157600080fd5b506040518060400160405280600a81526020017f57696e65426f74746c65000000000000000000000000000000000000000000008152506040518060400160405280600481526020017f57494e4500000000000000000000000000000000000000000000000000000000815250816000908051906020019062000096929190620000b8565b508060019080519060200190620000af929190620000b8565b505050620001cd565b828054620000c69062000168565b90600052602060002090601f016020900481019282620000ea576000855562000136565b82601f106200010557805160ff191683800117855562000136565b8280016001018555821562000136579182015b828111156200013557825182559160200191906001019062000118565b5b50905062000145919062000149565b5090565b5b80821115620001645760008160009055506001016200014a565b5090565b600060028204905060018216806200018157607f821691505b602082108114156200019857620001976200019e565b5b50919050565b7f4e487b7100000000000000000000000000000000000000000000000000000000600052602260045260246000fd5b61398780620001dd6000396000f3fe608060405234801561001057600080fd5b506004361061014d5760003560e01c806383638710116100c3578063b88d4fde1161007c578063b88d4fde146103ff578063c87b56dd1461041b578063d7f660951461044b578063d85d3d271461047b578063e985e9c5146104ab578063f8b2cb4f146104db5761014d565b806383638710146103055780638462151c14610335578063860fc78b1461036557806395d89b4114610395578063a22cb465146103b3578063b7760c8f146103cf5761014d565b806323b872dd1161011557806323b872dd1461020a5780634189a68e1461022657806342842e0e146102565780636352211e1461027257806370a08231146102a25780637bdc60d9146102d25761014d565b806301ffc9a71461015257806306fdde0314610182578063081812fc146101a0578063095ea7b3146101d057806318160ddd146101ec575b600080fd5b61016c600480360381019061016791906127b9565b61050b565b60405161017991906131a4565b60405180910390f35b61018a6105ed565b60405161019791906131bf565b60405180910390f35b6101ba60048036038101906101b5919061284c565b61067f565b6040516101c791906130e4565b60405180910390f35b6101ea60048036038101906101e5919061277d565b610704565b005b6101f461081c565b6040516102019190613421565b60405180910390f35b610224600480360381019061021f9190612677565b610829565b005b610240600480360381019061023b9190612875565b610889565b60405161024d9190613421565b60405180910390f35b610270600480360381019061026b9190612677565b610a7d565b005b61028c6004803603810190610287919061284c565b610a9d565b60405161029991906130e4565b60405180910390f35b6102bc60048036038101906102b79190612612565b610b4f565b6040516102c99190613421565b60405180910390f35b6102ec60048036038101906102e7919061284c565b610c07565b6040516102fc9493929190613488565b60405180910390f35b61031f600480360381019061031a919061284c565b610d23565b60405161032c91906130e4565b60405180910390f35b61034f600480360381019061034a9190612612565b610d35565b60405161035c9190613182565b60405180910390f35b61037f600480360381019061037a919061284c565b610f30565b60405161038c91906131a4565b60405180910390f35b61039d610f5a565b6040516103aa91906131bf565b60405180910390f35b6103cd60048036038101906103c89190612741565b610fec565b005b6103e960048036038101906103e49190612875565b611002565b6040516103f69190613421565b60405180910390f35b610419600480360381019061041491906126c6565b6111ea565b005b6104356004803603810190610430919061284c565b61124c565b60405161044291906131bf565b60405180910390f35b6104656004803603810190610460919061284c565b61139e565b60405161047291906131a4565b60405180910390f35b6104956004803603810190610490919061280b565b6113be565b6040516104a29190613421565b60405180910390f35b6104c560048036038101906104c0919061263b565b611676565b6040516104d291906131a4565b60405180910390f35b6104f560048036038101906104f09190612612565b61170a565b6040516105029190613421565b60405180910390f35b60007f80ac58cd000000000000000000000000000000000000000000000000000000007bffffffffffffffffffffffffffffffffffffffffffffffffffffffff1916827bffffffffffffffffffffffffffffffffffffffffffffffffffffffff191614806105d657507f5b5e139f000000000000000000000000000000000000000000000000000000007bffffffffffffffffffffffffffffffffffffffffffffffffffffffff1916827bffffffffffffffffffffffffffffffffffffffffffffffffffffffff1916145b806105e657506105e58261171c565b5b9050919050565b6060600080546105fc9061377c565b80601f01602080910402602001604051908101604052809291908181526020018280546106289061377c565b80156106755780601f1061064a57610100808354040283529160200191610675565b820191906000526020600020905b81548152906001019060200180831161065857829003601f168201915b5050505050905090565b600061068a82611786565b6106c9576040517f08c379a00000000000000000000000000000000000000000000000000000000081526004016106c090613381565b60405180910390fd5b6004600083815260200190815260200160002060009054906101000a900473ffffffffffffffffffffffffffffffffffffffff169050919050565b600061070f82610a9d565b90508073ffffffffffffffffffffffffffffffffffffffff168373ffffffffffffffffffffffffffffffffffffffff161415610780576040517f08c379a0000000000000000000000000000000000000000000000000000000008152600401610777906133e1565b60405180910390fd5b8073ffffffffffffffffffffffffffffffffffffffff1661079f6117f2565b73ffffffffffffffffffffffffffffffffffffffff1614806107ce57506107cd816107c86117f2565b611676565b5b61080d576040517f08c379a0000000000000000000000000000000000000000000000000000000008152600401610804906132c1565b60405180910390fd5b61081783836117fa565b505050565b6000600880549050905090565b61083a6108346117f2565b826118b3565b610879576040517f08c379a000000000000000000000000000000000000000000000000000000000815260040161087090613401565b60405180910390fd5b610884838383611991565b505050565b60008061089584610a9d565b90503373ffffffffffffffffffffffffffffffffffffffff168173ffffffffffffffffffffffffffffffffffffffff1614610905576040517f08c379a00000000000000000000000000000000000000000000000000000000081526004016108fc90613241565b60405180910390fd5b600b60008473ffffffffffffffffffffffffffffffffffffffff1673ffffffffffffffffffffffffffffffffffffffff1681526020019081526020016000206000815480929190610955906137ae565b9190505550600b60008273ffffffffffffffffffffffffffffffffffffffff1673ffffffffffffffffffffffffffffffffffffffff16815260200190815260200160002060008154809291906109aa90613752565b919050555082600a600086815260200190815260200160002060006101000a81548173ffffffffffffffffffffffffffffffffffffffff021916908373ffffffffffffffffffffffffffffffffffffffff1602179055506000600c600086815260200190815260200160002060006101000a81548160ff021916908315150217905550610a38818486610829565b7fae98fdb7f4bc601d31354dd8c8ba584bf892418c4df67aba01011867bd88ea27818486604051610a6b939291906130ff565b60405180910390a18391505092915050565b610a98838383604051806020016040528060008152506111ea565b505050565b6000806002600084815260200190815260200160002060009054906101000a900473ffffffffffffffffffffffffffffffffffffffff169050600073ffffffffffffffffffffffffffffffffffffffff168173ffffffffffffffffffffffffffffffffffffffff161415610b46576040517f08c379a0000000000000000000000000000000000000000000000000000000008152600401610b3d90613301565b60405180910390fd5b80915050919050565b60008073ffffffffffffffffffffffffffffffffffffffff168273ffffffffffffffffffffffffffffffffffffffff161415610bc0576040517f08c379a0000000000000000000000000000000000000000000000000000000008152600401610bb7906132e1565b60405180910390fd5b600360008373ffffffffffffffffffffffffffffffffffffffff1673ffffffffffffffffffffffffffffffffffffffff168152602001908152602001600020549050919050565b600060606000806000600960008781526020019081526020016000206000015490506000600960008881526020019081526020016000206001018054610c4c9061377c565b80601f0160208091040260200160405190810160405280929190818152602001828054610c789061377c565b8015610cc55780601f10610c9a57610100808354040283529160200191610cc5565b820191906000526020600020905b815481529060010190602001808311610ca857829003601f168201915b505050505090506000600960008981526020019081526020016000206002015490506000600c60008a815260200190815260200160002060009054906101000a900460ff169050838383839750975097509750505050509193509193565b6000610d2e82610a9d565b9050919050565b60606000610d4283610b4f565b90506000811415610dc557600067ffffffffffffffff811115610d8e577f4e487b7100000000000000000000000000000000000000000000000000000000600052604160045260246000fd5b604051908082528060200260200182016040528015610dbc5781602001602082028036833780820191505090505b50915050610f2b565b60008167ffffffffffffffff811115610e07577f4e487b7100000000000000000000000000000000000000000000000000000000600052604160045260246000fd5b604051908082528060200260200182016040528015610e355781602001602082028036833780820191505090505b5090506000610e4261081c565b9050600080600190505b828111610f22578673ffffffffffffffffffffffffffffffffffffffff16600a600083815260200190815260200160002060009054906101000a900473ffffffffffffffffffffffffffffffffffffffff1673ffffffffffffffffffffffffffffffffffffffff161415610f0f5780848381518110610ef4577f4e487b7100000000000000000000000000000000000000000000000000000000600052603260045260246000fd5b6020026020010181815250508180610f0b906137ae565b9250505b8080610f1a906137ae565b915050610e4c565b83955050505050505b919050565b6000600c600083815260200190815260200160002060009054906101000a900460ff169050919050565b606060018054610f699061377c565b80601f0160208091040260200160405190810160405280929190818152602001828054610f959061377c565b8015610fe25780601f10610fb757610100808354040283529160200191610fe2565b820191906000526020600020905b815481529060010190602001808311610fc557829003601f168201915b5050505050905090565b610ffe610ff76117f2565b8383611bed565b5050565b60008061100e84610a9d565b90503373ffffffffffffffffffffffffffffffffffffffff168173ffffffffffffffffffffffffffffffffffffffff161461107e576040517f08c379a000000000000000000000000000000000000000000000000000000000815260040161107590613221565b60405180910390fd5b600b60008473ffffffffffffffffffffffffffffffffffffffff1673ffffffffffffffffffffffffffffffffffffffff16815260200190815260200160002060008154809291906110ce906137ae565b9190505550600b60008273ffffffffffffffffffffffffffffffffffffffff1673ffffffffffffffffffffffffffffffffffffffff168152602001908152602001600020600081548092919061112390613752565b919050555082600a600086815260200190815260200160002060006101000a81548173ffffffffffffffffffffffffffffffffffffffff021916908373ffffffffffffffffffffffffffffffffffffffff160217905550611185818486610829565b838373ffffffffffffffffffffffffffffffffffffffff168273ffffffffffffffffffffffffffffffffffffffff167fddf252ad1be2c89b69c2b068fc378daa952ba7f163c4a11628f55a4df523b3ef60405160405180910390a48391505092915050565b6111fb6111f56117f2565b836118b3565b61123a576040517f08c379a000000000000000000000000000000000000000000000000000000000815260040161123190613401565b60405180910390fd5b61124684848484611d5a565b50505050565b606061125782611786565b611296576040517f08c379a000000000000000000000000000000000000000000000000000000000815260040161128d90613361565b60405180910390fd5b60006006600084815260200190815260200160002080546112b69061377c565b80601f01602080910402602001604051908101604052809291908181526020018280546112e29061377c565b801561132f5780601f106113045761010080835404028352916020019161132f565b820191906000526020600020905b81548152906001019060200180831161131257829003601f168201915b505050505090506000611340611db6565b9050600081511415611356578192505050611399565b60008251111561138b5780826040516020016113739291906130c0565b60405160208183030381529060405292505050611399565b61139484611dcd565b925050505b919050565b600c6020528060005260406000206000915054906101000a900460ff1681565b60006113ca6007611e74565b60006113d66007611e8a565b9050600060405180608001604052808381526020018581526020014281526020013373ffffffffffffffffffffffffffffffffffffffff1681525090506008819080600181540180825580915050600190039060005260206000209060040201600090919091909150600082015181600001556020820151816001019080519060200190611465929190612436565b506040820151816002015560608201518160030160006101000a81548173ffffffffffffffffffffffffffffffffffffffff021916908373ffffffffffffffffffffffffffffffffffffffff160217905550505080600960008481526020019081526020016000206000820151816000015560208201518160010190805190602001906114f3929190612436565b506040820151816002015560608201518160030160006101000a81548173ffffffffffffffffffffffffffffffffffffffff021916908373ffffffffffffffffffffffffffffffffffffffff16021790555090505033600a600084815260200190815260200160002060006101000a81548173ffffffffffffffffffffffffffffffffffffffff021916908373ffffffffffffffffffffffffffffffffffffffff1602179055506001600c600084815260200190815260200160002060006101000a81548160ff021916908315150217905550600b60003373ffffffffffffffffffffffffffffffffffffffff1673ffffffffffffffffffffffffffffffffffffffff1681526020019081526020016000206000815480929190611616906137ae565b91905055506116253383611e98565b61162f8285612066565b7fe938b9d2b705e5134b47fa64c7f30e098db6c36f7a5dc0440e62314aa9a822dd82854233604051611664949392919061343c565b60405180910390a18192505050919050565b6000600560008473ffffffffffffffffffffffffffffffffffffffff1673ffffffffffffffffffffffffffffffffffffffff16815260200190815260200160002060008373ffffffffffffffffffffffffffffffffffffffff1673ffffffffffffffffffffffffffffffffffffffff16815260200190815260200160002060009054906101000a900460ff16905092915050565b600061171582610b4f565b9050919050565b60007f01ffc9a7000000000000000000000000000000000000000000000000000000007bffffffffffffffffffffffffffffffffffffffffffffffffffffffff1916827bffffffffffffffffffffffffffffffffffffffffffffffffffffffff1916149050919050565b60008073ffffffffffffffffffffffffffffffffffffffff166002600084815260200190815260200160002060009054906101000a900473ffffffffffffffffffffffffffffffffffffffff1673ffffffffffffffffffffffffffffffffffffffff1614159050919050565b600033905090565b816004600083815260200190815260200160002060006101000a81548173ffffffffffffffffffffffffffffffffffffffff021916908373ffffffffffffffffffffffffffffffffffffffff160217905550808273ffffffffffffffffffffffffffffffffffffffff1661186d83610a9d565b73ffffffffffffffffffffffffffffffffffffffff167f8c5be1e5ebec7d5bd14f71427d1e84f3dd0314c0f7b2291e5b200ac8c7c3b92560405160405180910390a45050565b60006118be82611786565b6118fd576040517f08c379a00000000000000000000000000000000000000000000000000000000081526004016118f4906132a1565b60405180910390fd5b600061190883610a9d565b90508073ffffffffffffffffffffffffffffffffffffffff168473ffffffffffffffffffffffffffffffffffffffff16148061197757508373ffffffffffffffffffffffffffffffffffffffff1661195f8461067f565b73ffffffffffffffffffffffffffffffffffffffff16145b8061198857506119878185611676565b5b91505092915050565b8273ffffffffffffffffffffffffffffffffffffffff166119b182610a9d565b73ffffffffffffffffffffffffffffffffffffffff1614611a07576040517f08c379a00000000000000000000000000000000000000000000000000000000081526004016119fe906133a1565b60405180910390fd5b600073ffffffffffffffffffffffffffffffffffffffff168273ffffffffffffffffffffffffffffffffffffffff161415611a77576040517f08c379a0000000000000000000000000000000000000000000000000000000008152600401611a6e90613261565b60405180910390fd5b611a828383836120da565b611a8d6000826117fa565b6001600360008573ffffffffffffffffffffffffffffffffffffffff1673ffffffffffffffffffffffffffffffffffffffff1681526020019081526020016000206000828254611add9190613668565b925050819055506001600360008473ffffffffffffffffffffffffffffffffffffffff1673ffffffffffffffffffffffffffffffffffffffff1681526020019081526020016000206000828254611b3491906135e1565b92505081905550816002600083815260200190815260200160002060006101000a81548173ffffffffffffffffffffffffffffffffffffffff021916908373ffffffffffffffffffffffffffffffffffffffff160217905550808273ffffffffffffffffffffffffffffffffffffffff168473ffffffffffffffffffffffffffffffffffffffff167fddf252ad1be2c89b69c2b068fc378daa952ba7f163c4a11628f55a4df523b3ef60405160405180910390a4505050565b8173ffffffffffffffffffffffffffffffffffffffff168373ffffffffffffffffffffffffffffffffffffffff161415611c5c576040517f08c379a0000000000000000000000000000000000000000000000000000000008152600401611c5390613281565b60405180910390fd5b80600560008573ffffffffffffffffffffffffffffffffffffffff1673ffffffffffffffffffffffffffffffffffffffff16815260200190815260200160002060008473ffffffffffffffffffffffffffffffffffffffff1673ffffffffffffffffffffffffffffffffffffffff16815260200190815260200160002060006101000a81548160ff0219169083151502179055508173ffffffffffffffffffffffffffffffffffffffff168373ffffffffffffffffffffffffffffffffffffffff167f17307eab39ab6107e8899845ad3d59bd9653f200f220920489ca2b5937696c3183604051611d4d91906131a4565b60405180910390a3505050565b611d65848484611991565b611d71848484846120df565b611db0576040517f08c379a0000000000000000000000000000000000000000000000000000000008152600401611da7906131e1565b60405180910390fd5b50505050565b606060405180602001604052806000815250905090565b6060611dd882611786565b611e17576040517f08c379a0000000000000000000000000000000000000000000000000000000008152600401611e0e906133c1565b60405180910390fd5b6000611e21611db6565b90506000815111611e415760405180602001604052806000815250611e6c565b80611e4b84612276565b604051602001611e5c9291906130c0565b6040516020818303038152906040525b915050919050565b6001816000016000828254019250508190555050565b600081600001549050919050565b600073ffffffffffffffffffffffffffffffffffffffff168273ffffffffffffffffffffffffffffffffffffffff161415611f08576040517f08c379a0000000000000000000000000000000000000000000000000000000008152600401611eff90613341565b60405180910390fd5b611f1181611786565b15611f51576040517f08c379a0000000000000000000000000000000000000000000000000000000008152600401611f4890613201565b60405180910390fd5b611f5d600083836120da565b6001600360008473ffffffffffffffffffffffffffffffffffffffff1673ffffffffffffffffffffffffffffffffffffffff1681526020019081526020016000206000828254611fad91906135e1565b92505081905550816002600083815260200190815260200160002060006101000a81548173ffffffffffffffffffffffffffffffffffffffff021916908373ffffffffffffffffffffffffffffffffffffffff160217905550808273ffffffffffffffffffffffffffffffffffffffff16600073ffffffffffffffffffffffffffffffffffffffff167fddf252ad1be2c89b69c2b068fc378daa952ba7f163c4a11628f55a4df523b3ef60405160405180910390a45050565b61206f82611786565b6120ae576040517f08c379a00000000000000000000000000000000000000000000000000000000081526004016120a590613321565b60405180910390fd5b806006600084815260200190815260200160002090805190602001906120d5929190612436565b505050565b505050565b60006121008473ffffffffffffffffffffffffffffffffffffffff16612423565b15612269578373ffffffffffffffffffffffffffffffffffffffff1663150b7a026121296117f2565b8786866040518563ffffffff1660e01b815260040161214b9493929190613136565b602060405180830381600087803b15801561216557600080fd5b505af192505050801561219657506040513d601f19601f8201168201806040525081019061219391906127e2565b60015b612219573d80600081146121c6576040519150601f19603f3d011682016040523d82523d6000602084013e6121cb565b606091505b50600081511415612211576040517f08c379a0000000000000000000000000000000000000000000000000000000008152600401612208906131e1565b60405180910390fd5b805181602001fd5b63150b7a0260e01b7bffffffffffffffffffffffffffffffffffffffffffffffffffffffff1916817bffffffffffffffffffffffffffffffffffffffffffffffffffffffff19161491505061226e565b600190505b949350505050565b606060008214156122be576040518060400160405280600181526020017f3000000000000000000000000000000000000000000000000000000000000000815250905061241e565b600082905060005b600082146122f05780806122d9906137ae565b915050600a826122e99190613637565b91506122c6565b60008167ffffffffffffffff811115612332577f4e487b7100000000000000000000000000000000000000000000000000000000600052604160045260246000fd5b6040519080825280601f01601f1916602001820160405280156123645781602001600182028036833780820191505090505b5090505b600085146124175760018261237d9190613668565b9150600a8561238c91906137f7565b603061239891906135e1565b60f81b8183815181106123d4577f4e487b7100000000000000000000000000000000000000000000000000000000600052603260045260246000fd5b60200101907effffffffffffffffffffffffffffffffffffffffffffffffffffffffffffff1916908160001a905350600a856124109190613637565b9450612368565b8093505050505b919050565b600080823b905060008111915050919050565b8280546124429061377c565b90600052602060002090601f01602090048101928261246457600085556124ab565b82601f1061247d57805160ff19168380011785556124ab565b828001600101855582156124ab579182015b828111156124aa57825182559160200191906001019061248f565b5b5090506124b891906124bc565b5090565b5b808211156124d55760008160009055506001016124bd565b5090565b60006124ec6124e784613505565b6134d4565b90508281526020810184848401111561250457600080fd5b61250f848285613710565b509392505050565b600061252a61252584613535565b6134d4565b90508281526020810184848401111561254257600080fd5b61254d848285613710565b509392505050565b600081359050612564816138f5565b92915050565b6000813590506125798161390c565b92915050565b60008135905061258e81613923565b92915050565b6000815190506125a381613923565b92915050565b600082601f8301126125ba57600080fd5b81356125ca8482602086016124d9565b91505092915050565b600082601f8301126125e457600080fd5b81356125f4848260208601612517565b91505092915050565b60008135905061260c8161393a565b92915050565b60006020828403121561262457600080fd5b600061263284828501612555565b91505092915050565b6000806040838503121561264e57600080fd5b600061265c85828601612555565b925050602061266d85828601612555565b9150509250929050565b60008060006060848603121561268c57600080fd5b600061269a86828701612555565b93505060206126ab86828701612555565b92505060406126bc868287016125fd565b9150509250925092565b600080600080608085870312156126dc57600080fd5b60006126ea87828801612555565b94505060206126fb87828801612555565b935050604061270c878288016125fd565b925050606085013567ffffffffffffffff81111561272957600080fd5b612735878288016125a9565b91505092959194509250565b6000806040838503121561275457600080fd5b600061276285828601612555565b92505060206127738582860161256a565b9150509250929050565b6000806040838503121561279057600080fd5b600061279e85828601612555565b92505060206127af858286016125fd565b9150509250929050565b6000602082840312156127cb57600080fd5b60006127d98482850161257f565b91505092915050565b6000602082840312156127f457600080fd5b600061280284828501612594565b91505092915050565b60006020828403121561281d57600080fd5b600082013567ffffffffffffffff81111561283757600080fd5b612843848285016125d3565b91505092915050565b60006020828403121561285e57600080fd5b600061286c848285016125fd565b91505092915050565b6000806040838503121561288857600080fd5b6000612896858286016125fd565b92505060206128a785828601612555565b9150509250929050565b60006128bd83836130a2565b60208301905092915050565b6128d28161369c565b82525050565b60006128e382613575565b6128ed81856135a3565b93506128f883613565565b8060005b8381101561292957815161291088826128b1565b975061291b83613596565b9250506001810190506128fc565b5085935050505092915050565b61293f816136ae565b82525050565b600061295082613580565b61295a81856135b4565b935061296a81856020860161371f565b612973816138e4565b840191505092915050565b60006129898261358b565b61299381856135c5565b93506129a381856020860161371f565b6129ac816138e4565b840191505092915050565b60006129c28261358b565b6129cc81856135d6565b93506129dc81856020860161371f565b80840191505092915050565b60006129f56032836135c5565b91507f4552433732313a207472616e7366657220746f206e6f6e20455243373231526560008301527f63656976657220696d706c656d656e74657200000000000000000000000000006020830152604082019050919050565b6000612a5b601c836135c5565b91507f4552433732313a20746f6b656e20616c7265616479206d696e746564000000006000830152602082019050919050565b6000612a9b6025836135c5565b91507f4f6e6c79206f776e6572206f66207468697320746f6b656e2063616e2074726160008301527f6e736665720000000000000000000000000000000000000000000000000000006020830152604082019050919050565b6000612b016021836135c5565b91507f4f6e6c79206f776e6572206f66207468697320746f6b656e2063616e2073656c60008301527f6c000000000000000000000000000000000000000000000000000000000000006020830152604082019050919050565b6000612b676024836135c5565b91507f4552433732313a207472616e7366657220746f20746865207a65726f2061646460008301527f72657373000000000000000000000000000000000000000000000000000000006020830152604082019050919050565b6000612bcd6019836135c5565b91507f4552433732313a20617070726f766520746f2063616c6c6572000000000000006000830152602082019050919050565b6000612c0d602c836135c5565b91507f4552433732313a206f70657261746f7220717565727920666f72206e6f6e657860008301527f697374656e7420746f6b656e00000000000000000000000000000000000000006020830152604082019050919050565b6000612c736038836135c5565b91507f4552433732313a20617070726f76652063616c6c6572206973206e6f74206f7760008301527f6e6572206e6f7220617070726f76656420666f7220616c6c00000000000000006020830152604082019050919050565b6000612cd9602a836135c5565b91507f4552433732313a2062616c616e636520717565727920666f7220746865207a6560008301527f726f2061646472657373000000000000000000000000000000000000000000006020830152604082019050919050565b6000612d3f6029836135c5565b91507f4552433732313a206f776e657220717565727920666f72206e6f6e657869737460008301527f656e7420746f6b656e00000000000000000000000000000000000000000000006020830152604082019050919050565b6000612da5602e836135c5565b91507f45524337323155524953746f726167653a2055524920736574206f66206e6f6e60008301527f6578697374656e7420746f6b656e0000000000000000000000000000000000006020830152604082019050919050565b6000612e0b6020836135c5565b91507f4552433732313a206d696e7420746f20746865207a65726f20616464726573736000830152602082019050919050565b6000612e4b6031836135c5565b91507f45524337323155524953746f726167653a2055524920717565727920666f722060008301527f6e6f6e6578697374656e7420746f6b656e0000000000000000000000000000006020830152604082019050919050565b6000612eb1602c836135c5565b91507f4552433732313a20617070726f76656420717565727920666f72206e6f6e657860008301527f697374656e7420746f6b656e00000000000000000000000000000000000000006020830152604082019050919050565b6000612f176029836135c5565b91507f4552433732313a207472616e73666572206f6620746f6b656e2074686174206960008301527f73206e6f74206f776e00000000000000000000000000000000000000000000006020830152604082019050919050565b6000612f7d602f836135c5565b91507f4552433732314d657461646174613a2055524920717565727920666f72206e6f60008301527f6e6578697374656e7420746f6b656e00000000000000000000000000000000006020830152604082019050919050565b6000612fe36021836135c5565b91507f4552433732313a20617070726f76616c20746f2063757272656e74206f776e6560008301527f72000000000000000000000000000000000000000000000000000000000000006020830152604082019050919050565b60006130496031836135c5565b91507f4552433732313a207472616e736665722063616c6c6572206973206e6f74206f60008301527f776e6572206e6f7220617070726f7665640000000000000000000000000000006020830152604082019050919050565b6130ab81613706565b82525050565b6130ba81613706565b82525050565b60006130cc82856129b7565b91506130d882846129b7565b91508190509392505050565b60006020820190506130f960008301846128c9565b92915050565b600060608201905061311460008301866128c9565b61312160208301856128c9565b61312e60408301846130b1565b949350505050565b600060808201905061314b60008301876128c9565b61315860208301866128c9565b61316560408301856130b1565b81810360608301526131778184612945565b905095945050505050565b6000602082019050818103600083015261319c81846128d8565b905092915050565b60006020820190506131b96000830184612936565b92915050565b600060208201905081810360008301526131d9818461297e565b905092915050565b600060208201905081810360008301526131fa816129e8565b9050919050565b6000602082019050818103600083015261321a81612a4e565b9050919050565b6000602082019050818103600083015261323a81612a8e565b9050919050565b6000602082019050818103600083015261325a81612af4565b9050919050565b6000602082019050818103600083015261327a81612b5a565b9050919050565b6000602082019050818103600083015261329a81612bc0565b9050919050565b600060208201905081810360008301526132ba81612c00565b9050919050565b600060208201905081810360008301526132da81612c66565b9050919050565b600060208201905081810360008301526132fa81612ccc565b9050919050565b6000602082019050818103600083015261331a81612d32565b9050919050565b6000602082019050818103600083015261333a81612d98565b9050919050565b6000602082019050818103600083015261335a81612dfe565b9050919050565b6000602082019050818103600083015261337a81612e3e565b9050919050565b6000602082019050818103600083015261339a81612ea4565b9050919050565b600060208201905081810360008301526133ba81612f0a565b9050919050565b600060208201905081810360008301526133da81612f70565b9050919050565b600060208201905081810360008301526133fa81612fd6565b9050919050565b6000602082019050818103600083015261341a8161303c565b9050919050565b600060208201905061343660008301846130b1565b92915050565b600060808201905061345160008301876130b1565b8181036020830152613463818661297e565b905061347260408301856130b1565b61347f60608301846128c9565b95945050505050565b600060808201905061349d60008301876130b1565b81810360208301526134af818661297e565b90506134be60408301856130b1565b6134cb6060830184612936565b95945050505050565b6000604051905081810181811067ffffffffffffffff821117156134fb576134fa6138b5565b5b8060405250919050565b600067ffffffffffffffff8211156135205761351f6138b5565b5b601f19601f8301169050602081019050919050565b600067ffffffffffffffff8211156135505761354f6138b5565b5b601f19601f8301169050602081019050919050565b6000819050602082019050919050565b600081519050919050565b600081519050919050565b600081519050919050565b6000602082019050919050565b600082825260208201905092915050565b600082825260208201905092915050565b600082825260208201905092915050565b600081905092915050565b60006135ec82613706565b91506135f783613706565b9250827fffffffffffffffffffffffffffffffffffffffffffffffffffffffffffffffff0382111561362c5761362b613828565b5b828201905092915050565b600061364282613706565b915061364d83613706565b92508261365d5761365c613857565b5b828204905092915050565b600061367382613706565b915061367e83613706565b92508282101561369157613690613828565b5b828203905092915050565b60006136a7826136e6565b9050919050565b60008115159050919050565b60007fffffffff0000000000000000000000000000000000000000000000000000000082169050919050565b600073ffffffffffffffffffffffffffffffffffffffff82169050919050565b6000819050919050565b82818337600083830152505050565b60005b8381101561373d578082015181840152602081019050613722565b8381111561374c576000848401525b50505050565b600061375d82613706565b9150600082141561377157613770613828565b5b600182039050919050565b6000600282049050600182168061379457607f821691505b602082108114156137a8576137a7613886565b5b50919050565b60006137b982613706565b91507fffffffffffffffffffffffffffffffffffffffffffffffffffffffffffffffff8214156137ec576137eb613828565b5b600182019050919050565b600061380282613706565b915061380d83613706565b92508261381d5761381c613857565b5b828206905092915050565b7f4e487b7100000000000000000000000000000000000000000000000000000000600052601160045260246000fd5b7f4e487b7100000000000000000000000000000000000000000000000000000000600052601260045260246000fd5b7f4e487b7100000000000000000000000000000000000000000000000000000000600052602260045260246000fd5b7f4e487b7100000000000000000000000000000000000000000000000000000000600052604160045260246000fd5b6000601f19601f8301169050919050565b6138fe8161369c565b811461390957600080fd5b50565b613915816136ae565b811461392057600080fd5b50565b61392c816136ba565b811461393757600080fd5b50565b61394381613706565b811461394e57600080fd5b5056fea26469706673582212209fa991f4565a164cac6174a33bd70abbe18133f6faf4300c71e5ffef60fc16ec64736f6c63430008000033",
  "immutableReferences": {},
  "source": "// SPDX-License-Identifier: GPL-3.0\n\npragma solidity 0.8.0;\n\nimport \"@openzeppelin/contracts/token/ERC721/extensions/ERC721URIStorage.sol\";\nimport \"@openzeppelin/contracts/utils/Counters.sol\";\n\ncontract NFT is ERC721URIStorage {\n    using Counters for Counters.Counter;\n\n    /*** Data Types ***/\n\n    struct Token {\n        uint256 id;\n        string tokenURI;\n        uint256 mintedAt;\n        address mintedBy; //This could be cellar name inherited from main contract\n    }\n\n    /*** Storage ***/\n\n    //Token ID count\n    Counters.Counter private _tokenIds;\n\n    //Tracks tokens (TODO: Is this necessary? Already tracking tokens in next mapping)\n    Token[] tokens;\n\n    //Tracks tokens \n    mapping(uint256 => Token) private indexToToken;\n\n    //Ownership by token id\n    mapping(uint256 => address) private tokenIndexToOwner;\n\n    //How many tokens owner has\n    mapping(address => uint256) ownershipTokenCount;\n\n    //Token validity (Used to know if bottle is authentic or not).\n    mapping(uint256 => bool) public tokenIndexIsValid;\n\n    /*** Events ***/\n\n    event Mint(uint256 id, string tokenURI, uint256 mintedAt, address mintedBy);\n    event Sell(address seller, address to, uint256 id);\n\n    /*** Constructor ***/\n\n    constructor() ERC721(\"WineBottle\", \"WINE\") {}\n\n    /*** Methods ***/\n\n    //Return owner address by token ID\n    function getOwnerOf(uint256 _tokenId) public view returns (address) {\n        return super.ownerOf(_tokenId);\n    }\n\n    //Return token count\n    function getBalance(address _address) public view returns (uint256) {\n        return super.balanceOf(_address);\n    }\n\n    //Return token total supply\n    function totalSupply() public view returns (uint256) {\n        return tokens.length;\n    }\n\n    //Return token validity (Sold wine = Invalid token)\n    function isValidToken(uint256 _tokenId) public view returns (bool) {\n        return tokenIndexIsValid[_tokenId];\n    }\n\n    // TODO: Find a better way to do this. If token amount increases, this will lead\n    // to a problem.\n    //Return array of token owned IDs\n    function tokensOfOwner(address _owner)\n        public\n        view\n        returns (uint256[] memory)\n    {\n        uint256 balance = balanceOf(_owner);\n\n        if (balance == 0) {\n            return new uint256[](0);\n        } else {\n            //Memory arrays needs to have a fixed size\n            uint256[] memory result = new uint256[](balance);\n            uint256 maxTokenId = totalSupply();\n            uint256 idx = 0;\n            uint256 tokenId;\n            \n            for (tokenId = 1; tokenId <= maxTokenId; tokenId++) {\n                if (tokenIndexToOwner[tokenId] == _owner) {\n                    result[idx] = tokenId;\n                    idx++;\n                }\n            }\n            return result;\n        }\n    }\n\n    // Given an id, returns token data \n    function getTokenById(uint256 _tokenId) public view returns (uint256, string memory, uint256, bool) {\n        uint256 id = indexToToken[_tokenId].id;\n        string memory uri = indexToToken[_tokenId].tokenURI;\n        uint256 mintedAt = indexToToken[_tokenId].mintedAt;\n        bool isValid = tokenIndexIsValid[_tokenId];\n\n        return (id, uri, mintedAt, isValid);\n   }\n\n    function mint(string memory _tokenURI) public returns (uint256) {\n        _tokenIds.increment();\n\n        //Token count increment before creation to avoid index 0\n        uint256 newItemId = _tokenIds.current();\n\n        Token memory token = Token({\n            id: newItemId,\n            tokenURI: _tokenURI,\n            mintedAt: block.timestamp,\n            mintedBy: msg.sender\n        });\n        tokens.push(token);\n        indexToToken[newItemId] = token;\n        tokenIndexToOwner[newItemId] = msg.sender;\n        tokenIndexIsValid[newItemId] = true;\n        ownershipTokenCount[msg.sender]++;\n\n        super._mint(msg.sender, newItemId);\n        super._setTokenURI(newItemId, _tokenURI);\n\n        emit Mint(newItemId, _tokenURI, block.timestamp, msg.sender);\n\n        return newItemId;\n    }\n\n    function transfer(uint256 _tokenId, address _to)\n        public\n        returns (uint256)\n    {\n        address seller = ownerOf(_tokenId);\n        require(seller == msg.sender, \"Only owner of this token can transfer\");\n\n        ownershipTokenCount[_to]++;\n        ownershipTokenCount[seller]--;\n        tokenIndexToOwner[_tokenId] = _to;\n\n        transferFrom(seller, _to, _tokenId);\n\n        emit Transfer(seller, _to, _tokenId);\n\n        return _tokenId;\n    }\n\n    function sell(uint256 _tokenId, address _to)\n        public\n        returns (uint256)\n    {        \n        address seller = ownerOf(_tokenId);\n        require(seller == msg.sender, \"Only owner of this token can sell\");\n\n        ownershipTokenCount[_to]++;\n        ownershipTokenCount[seller]--;\n        tokenIndexToOwner[_tokenId] = _to;\n        tokenIndexIsValid[_tokenId] = false;\n\n        transferFrom(seller, _to, _tokenId);\n\n        emit Sell(seller, _to, _tokenId);\n\n        return _tokenId;\n    }\n}\n",
  "sourcePath": "D:\\Projects\\BSM\\safewine\\contracts\\NFT.sol",
  "compiler": {
    "name": "solc",
    "version": "0.8.0+commit.c7dfd78e.Emscripten.clang"
  },
  "schemaVersion": "3.4.4",
  "updatedAt": "2022-02-23T21:36:17.206Z",
  "networkType": "ethereum",
  "devdoc": {
    "kind": "dev",
    "methods": {
      "approve(address,uint256)": {
        "details": "See {IERC721-approve}."
      },
      "balanceOf(address)": {
        "details": "See {IERC721-balanceOf}."
      },
      "getApproved(uint256)": {
        "details": "See {IERC721-getApproved}."
      },
      "isApprovedForAll(address,address)": {
        "details": "See {IERC721-isApprovedForAll}."
      },
      "name()": {
        "details": "See {IERC721Metadata-name}."
      },
      "ownerOf(uint256)": {
        "details": "See {IERC721-ownerOf}."
      },
      "safeTransferFrom(address,address,uint256)": {
        "details": "See {IERC721-safeTransferFrom}."
      },
      "safeTransferFrom(address,address,uint256,bytes)": {
        "details": "See {IERC721-safeTransferFrom}."
      },
      "setApprovalForAll(address,bool)": {
        "details": "See {IERC721-setApprovalForAll}."
      },
      "supportsInterface(bytes4)": {
        "details": "See {IERC165-supportsInterface}."
      },
      "symbol()": {
        "details": "See {IERC721Metadata-symbol}."
      },
      "tokenURI(uint256)": {
        "details": "See {IERC721Metadata-tokenURI}."
      },
      "transferFrom(address,address,uint256)": {
        "details": "See {IERC721-transferFrom}."
      }
    },
    "version": 1
  },
  "userdoc": {
    "kind": "user",
    "methods": {},
    "version": 1
  }
}