{
  "contractName": "MainContract",
  "abi": [
    {
      "anonymous": false,
      "inputs": [
        {
          "indexed": true,
          "internalType": "bytes32",
          "name": "role",
          "type": "bytes32"
        },
        {
          "indexed": true,
          "internalType": "bytes32",
          "name": "previousAdminRole",
          "type": "bytes32"
        },
        {
          "indexed": true,
          "internalType": "bytes32",
          "name": "newAdminRole",
          "type": "bytes32"
        }
      ],
      "name": "RoleAdminChanged",
      "type": "event"
    },
    {
      "anonymous": false,
      "inputs": [
        {
          "indexed": true,
          "internalType": "bytes32",
          "name": "role",
          "type": "bytes32"
        },
        {
          "indexed": true,
          "internalType": "address",
          "name": "account",
          "type": "address"
        },
        {
          "indexed": true,
          "internalType": "address",
          "name": "sender",
          "type": "address"
        }
      ],
      "name": "RoleGranted",
      "type": "event"
    },
    {
      "anonymous": false,
      "inputs": [
        {
          "indexed": true,
          "internalType": "bytes32",
          "name": "role",
          "type": "bytes32"
        },
        {
          "indexed": true,
          "internalType": "address",
          "name": "account",
          "type": "address"
        },
        {
          "indexed": true,
          "internalType": "address",
          "name": "sender",
          "type": "address"
        }
      ],
      "name": "RoleRevoked",
      "type": "event"
    },
    {
      "inputs": [],
      "name": "CELLAR_ROLE",
      "outputs": [
        {
          "internalType": "bytes32",
          "name": "",
          "type": "bytes32"
        }
      ],
      "stateMutability": "view",
      "type": "function"
    },
    {
      "inputs": [],
      "name": "DEFAULT_ADMIN_ROLE",
      "outputs": [
        {
          "internalType": "bytes32",
          "name": "",
          "type": "bytes32"
        }
      ],
      "stateMutability": "view",
      "type": "function"
    },
    {
      "inputs": [],
      "name": "SHOP_ROLE",
      "outputs": [
        {
          "internalType": "bytes32",
          "name": "",
          "type": "bytes32"
        }
      ],
      "stateMutability": "view",
      "type": "function"
    },
    {
      "inputs": [
        {
          "internalType": "address",
          "name": "",
          "type": "address"
        }
      ],
      "name": "cellars",
      "outputs": [
        {
          "internalType": "string",
          "name": "name",
          "type": "string"
        },
        {
          "internalType": "string",
          "name": "description",
          "type": "string"
        }
      ],
      "stateMutability": "view",
      "type": "function"
    },
    {
      "inputs": [
        {
          "internalType": "bytes32",
          "name": "role",
          "type": "bytes32"
        }
      ],
      "name": "getRoleAdmin",
      "outputs": [
        {
          "internalType": "bytes32",
          "name": "",
          "type": "bytes32"
        }
      ],
      "stateMutability": "view",
      "type": "function"
    },
    {
      "inputs": [
        {
          "internalType": "bytes32",
          "name": "role",
          "type": "bytes32"
        },
        {
          "internalType": "address",
          "name": "account",
          "type": "address"
        }
      ],
      "name": "grantRole",
      "outputs": [],
      "stateMutability": "nonpayable",
      "type": "function"
    },
    {
      "inputs": [
        {
          "internalType": "bytes32",
          "name": "role",
          "type": "bytes32"
        },
        {
          "internalType": "address",
          "name": "account",
          "type": "address"
        }
      ],
      "name": "hasRole",
      "outputs": [
        {
          "internalType": "bool",
          "name": "",
          "type": "bool"
        }
      ],
      "stateMutability": "view",
      "type": "function"
    },
    {
      "inputs": [
        {
          "internalType": "bytes32",
          "name": "role",
          "type": "bytes32"
        },
        {
          "internalType": "address",
          "name": "account",
          "type": "address"
        }
      ],
      "name": "renounceRole",
      "outputs": [],
      "stateMutability": "nonpayable",
      "type": "function"
    },
    {
      "inputs": [
        {
          "internalType": "bytes32",
          "name": "role",
          "type": "bytes32"
        },
        {
          "internalType": "address",
          "name": "account",
          "type": "address"
        }
      ],
      "name": "revokeRole",
      "outputs": [],
      "stateMutability": "nonpayable",
      "type": "function"
    },
    {
      "inputs": [
        {
          "internalType": "address",
          "name": "",
          "type": "address"
        }
      ],
      "name": "shops",
      "outputs": [
        {
          "internalType": "string",
          "name": "name",
          "type": "string"
        },
        {
          "internalType": "string",
          "name": "description",
          "type": "string"
        }
      ],
      "stateMutability": "view",
      "type": "function"
    },
    {
      "inputs": [
        {
          "internalType": "bytes4",
          "name": "interfaceId",
          "type": "bytes4"
        }
      ],
      "name": "supportsInterface",
      "outputs": [
        {
          "internalType": "bool",
          "name": "",
          "type": "bool"
        }
      ],
      "stateMutability": "view",
      "type": "function"
    },
    {
      "inputs": [
        {
          "internalType": "string",
          "name": "_name",
          "type": "string"
        },
        {
          "internalType": "string",
          "name": "_description",
          "type": "string"
        }
      ],
      "name": "addNewCellar",
      "outputs": [
        {
          "internalType": "bool",
          "name": "",
          "type": "bool"
        }
      ],
      "stateMutability": "nonpayable",
      "type": "function"
    },
    {
      "inputs": [
        {
          "internalType": "string",
          "name": "_name",
          "type": "string"
        },
        {
          "internalType": "string",
          "name": "_description",
          "type": "string"
        }
      ],
      "name": "addNewShop",
      "outputs": [
        {
          "internalType": "bool",
          "name": "",
          "type": "bool"
        }
      ],
      "stateMutability": "nonpayable",
      "type": "function"
    },
    {
      "inputs": [
        {
          "internalType": "address",
          "name": "_address",
          "type": "address"
        }
      ],
      "name": "getCellarByAddress",
      "outputs": [
        {
          "components": [
            {
              "internalType": "string",
              "name": "name",
              "type": "string"
            },
            {
              "internalType": "string",
              "name": "description",
              "type": "string"
            }
          ],
          "internalType": "struct MainContract.Cellar",
          "name": "",
          "type": "tuple"
        }
      ],
      "stateMutability": "view",
      "type": "function"
    },
    {
      "inputs": [],
      "name": "getCellar",
      "outputs": [
        {
          "components": [
            {
              "internalType": "string",
              "name": "name",
              "type": "string"
            },
            {
              "internalType": "string",
              "name": "description",
              "type": "string"
            }
          ],
          "internalType": "struct MainContract.Cellar",
          "name": "",
          "type": "tuple"
        }
      ],
      "stateMutability": "view",
      "type": "function"
    }
  ],
  "bytecode": "0x608060405234801561001057600080fd5b50611bc9806100206000396000f3fe608060405234801561001057600080fd5b50600436106100f55760003560e01c806367e0555511610097578063a217fddf11610066578063a217fddf146102bf578063c1d64621146102dd578063d547741f146102fb578063ef56913c14610317576100f5565b806367e055551461021157806379669a811461024157806391d1485414610271578063962282f1146102a1576100f5565b8063248a9ca3116100d3578063248a9ca3146101785780632dca1fcc146101a85780632f2ff15d146101d957806336568abe146101f5576100f5565b806301d0216c146100fa57806301d886ca1461011857806301ffc9a714610148575b600080fd5b610102610348565b60405161010f9190611287565b60405180910390f35b610132600480360381019061012d91906113fc565b61036c565b60405161013f919061148f565b60405180910390f35b610162600480360381019061015d9190611502565b610450565b60405161016f919061148f565b60405180910390f35b610192600480360381019061018d919061155b565b6104ca565b60405161019f9190611287565b60405180910390f35b6101c260048036038101906101bd91906115e6565b6104e9565b6040516101d092919061169b565b60405180910390f35b6101f360048036038101906101ee91906116d2565b61061d565b005b61020f600480360381019061020a91906116d2565b610646565b005b61022b600480360381019061022691906113fc565b6106c9565b604051610238919061148f565b60405180910390f35b61025b600480360381019061025691906115e6565b6107ad565b60405161026891906117a0565b60405180910390f35b61028b600480360381019061028691906116d2565b61092a565b604051610298919061148f565b60405180910390f35b6102a9610994565b6040516102b691906117a0565b60405180910390f35b6102c7610b0f565b6040516102d49190611287565b60405180910390f35b6102e5610b16565b6040516102f29190611287565b60405180910390f35b610315600480360381019061031091906116d2565b610b3a565b005b610331600480360381019061032c91906115e6565b610b63565b60405161033f92919061169b565b60405180910390f35b7f1f0426c2589e5c3ea5f5996e2a4371ca21edd86514b6679c9dd135d7c85b28bf81565b600082600260003373ffffffffffffffffffffffffffffffffffffffff1673ffffffffffffffffffffffffffffffffffffffff16815260200190815260200160002060000190805190602001906103c49291906111b1565b5081600260003373ffffffffffffffffffffffffffffffffffffffff1673ffffffffffffffffffffffffffffffffffffffff168152602001908152602001600020600101908051906020019061041b9291906111b1565b506104467f1f0426c2589e5c3ea5f5996e2a4371ca21edd86514b6679c9dd135d7c85b28bf33610c97565b6001905092915050565b60007f7965db0b000000000000000000000000000000000000000000000000000000007bffffffffffffffffffffffffffffffffffffffffffffffffffffffff1916827bffffffffffffffffffffffffffffffffffffffffffffffffffffffff191614806104c357506104c282610ca5565b5b9050919050565b6000806000838152602001908152602001600020600101549050919050565b600260205280600052604060002060009150905080600001805461050c906117f1565b80601f0160208091040260200160405190810160405280929190818152602001828054610538906117f1565b80156105855780601f1061055a57610100808354040283529160200191610585565b820191906000526020600020905b81548152906001019060200180831161056857829003601f168201915b50505050509080600101805461059a906117f1565b80601f01602080910402602001604051908101604052809291908181526020018280546105c6906117f1565b80156106135780601f106105e857610100808354040283529160200191610613565b820191906000526020600020905b8154815290600101906020018083116105f657829003601f168201915b5050505050905082565b610626826104ca565b61063781610632610d0f565b610d17565b6106418383610db4565b505050565b61064e610d0f565b73ffffffffffffffffffffffffffffffffffffffff168173ffffffffffffffffffffffffffffffffffffffff16146106bb576040517f08c379a00000000000000000000000000000000000000000000000000000000081526004016106b290611895565b60405180910390fd5b6106c58282610e94565b5050565b600082600160003373ffffffffffffffffffffffffffffffffffffffff1673ffffffffffffffffffffffffffffffffffffffff16815260200190815260200160002060000190805190602001906107219291906111b1565b5081600160003373ffffffffffffffffffffffffffffffffffffffff1673ffffffffffffffffffffffffffffffffffffffff16815260200190815260200160002060010190805190602001906107789291906111b1565b506107a37f42451c008b29b15124241bf618128eecdee98a1ff4fca709bae5f1c1ad92621a33610c97565b6001905092915050565b6107b5611237565b600160008373ffffffffffffffffffffffffffffffffffffffff1673ffffffffffffffffffffffffffffffffffffffff16815260200190815260200160002060405180604001604052908160008201805461080f906117f1565b80601f016020809104026020016040519081016040528092919081815260200182805461083b906117f1565b80156108885780601f1061085d57610100808354040283529160200191610888565b820191906000526020600020905b81548152906001019060200180831161086b57829003601f168201915b505050505081526020016001820180546108a1906117f1565b80601f01602080910402602001604051908101604052809291908181526020018280546108cd906117f1565b801561091a5780601f106108ef5761010080835404028352916020019161091a565b820191906000526020600020905b8154815290600101906020018083116108fd57829003601f168201915b5050505050815250509050919050565b600080600084815260200190815260200160002060000160008373ffffffffffffffffffffffffffffffffffffffff1673ffffffffffffffffffffffffffffffffffffffff16815260200190815260200160002060009054906101000a900460ff16905092915050565b61099c611237565b600160003373ffffffffffffffffffffffffffffffffffffffff1673ffffffffffffffffffffffffffffffffffffffff1681526020019081526020016000206040518060400160405290816000820180546109f6906117f1565b80601f0160208091040260200160405190810160405280929190818152602001828054610a22906117f1565b8015610a6f5780601f10610a4457610100808354040283529160200191610a6f565b820191906000526020600020905b815481529060010190602001808311610a5257829003601f168201915b50505050508152602001600182018054610a88906117f1565b80601f0160208091040260200160405190810160405280929190818152602001828054610ab4906117f1565b8015610b015780601f10610ad657610100808354040283529160200191610b01565b820191906000526020600020905b815481529060010190602001808311610ae457829003601f168201915b505050505081525050905090565b6000801b81565b7f42451c008b29b15124241bf618128eecdee98a1ff4fca709bae5f1c1ad92621a81565b610b43826104ca565b610b5481610b4f610d0f565b610d17565b610b5e8383610e94565b505050565b6001602052806000526040600020600091509050806000018054610b86906117f1565b80601f0160208091040260200160405190810160405280929190818152602001828054610bb2906117f1565b8015610bff5780601f10610bd457610100808354040283529160200191610bff565b820191906000526020600020905b815481529060010190602001808311610be257829003601f168201915b505050505090806001018054610c14906117f1565b80601f0160208091040260200160405190810160405280929190818152602001828054610c40906117f1565b8015610c8d5780601f10610c6257610100808354040283529160200191610c8d565b820191906000526020600020905b815481529060010190602001808311610c7057829003601f168201915b5050505050905082565b610ca18282610db4565b5050565b60007f01ffc9a7000000000000000000000000000000000000000000000000000000007bffffffffffffffffffffffffffffffffffffffffffffffffffffffff1916827bffffffffffffffffffffffffffffffffffffffffffffffffffffffff1916149050919050565b600033905090565b610d21828261092a565b610db057610d468173ffffffffffffffffffffffffffffffffffffffff166014610f75565b610d548360001c6020610f75565b604051602001610d65929190611989565b6040516020818303038152906040526040517f08c379a0000000000000000000000000000000000000000000000000000000008152600401610da791906119c3565b60405180910390fd5b5050565b610dbe828261092a565b610e9057600160008084815260200190815260200160002060000160008373ffffffffffffffffffffffffffffffffffffffff1673ffffffffffffffffffffffffffffffffffffffff16815260200190815260200160002060006101000a81548160ff021916908315150217905550610e35610d0f565b73ffffffffffffffffffffffffffffffffffffffff168173ffffffffffffffffffffffffffffffffffffffff16837f2f8788117e7eff1d82e926ec794901d17c78024a50270940304540a733656f0d60405160405180910390a45b5050565b610e9e828261092a565b15610f7157600080600084815260200190815260200160002060000160008373ffffffffffffffffffffffffffffffffffffffff1673ffffffffffffffffffffffffffffffffffffffff16815260200190815260200160002060006101000a81548160ff021916908315150217905550610f16610d0f565b73ffffffffffffffffffffffffffffffffffffffff168173ffffffffffffffffffffffffffffffffffffffff16837ff6391f5c32d9c69d2a47ea670b442974b53935d1edc7fd64eb21e047a839171b60405160405180910390a45b5050565b606060006002836002610f889190611a1e565b610f929190611a78565b67ffffffffffffffff811115610fab57610faa6112d1565b5b6040519080825280601f01601f191660200182016040528015610fdd5781602001600182028036833780820191505090505b5090507f30000000000000000000000000000000000000000000000000000000000000008160008151811061101557611014611ace565b5b60200101907effffffffffffffffffffffffffffffffffffffffffffffffffffffffffffff1916908160001a9053507f78000000000000000000000000000000000000000000000000000000000000008160018151811061107957611078611ace565b5b60200101907effffffffffffffffffffffffffffffffffffffffffffffffffffffffffffff1916908160001a905350600060018460026110b99190611a1e565b6110c39190611a78565b90505b6001811115611163577f3031323334353637383961626364656600000000000000000000000000000000600f86166010811061110557611104611ace565b5b1a60f81b82828151811061111c5761111b611ace565b5b60200101907effffffffffffffffffffffffffffffffffffffffffffffffffffffffffffff1916908160001a905350600485901c94508061115c90611afd565b90506110c6565b50600084146111a7576040517f08c379a000000000000000000000000000000000000000000000000000000000815260040161119e90611b73565b60405180910390fd5b8091505092915050565b8280546111bd906117f1565b90600052602060002090601f0160209004810192826111df5760008555611226565b82601f106111f857805160ff1916838001178555611226565b82800160010185558215611226579182015b8281111561122557825182559160200191906001019061120a565b5b5090506112339190611251565b5090565b604051806040016040528060608152602001606081525090565b5b8082111561126a576000816000905550600101611252565b5090565b6000819050919050565b6112818161126e565b82525050565b600060208201905061129c6000830184611278565b92915050565b6000604051905090565b600080fd5b600080fd5b600080fd5b600080fd5b6000601f19601f8301169050919050565b7f4e487b7100000000000000000000000000000000000000000000000000000000600052604160045260246000fd5b611309826112c0565b810181811067ffffffffffffffff82111715611328576113276112d1565b5b80604052505050565b600061133b6112a2565b90506113478282611300565b919050565b600067ffffffffffffffff821115611367576113666112d1565b5b611370826112c0565b9050602081019050919050565b82818337600083830152505050565b600061139f61139a8461134c565b611331565b9050828152602081018484840111156113bb576113ba6112bb565b5b6113c684828561137d565b509392505050565b600082601f8301126113e3576113e26112b6565b5b81356113f384826020860161138c565b91505092915050565b60008060408385031215611413576114126112ac565b5b600083013567ffffffffffffffff811115611431576114306112b1565b5b61143d858286016113ce565b925050602083013567ffffffffffffffff81111561145e5761145d6112b1565b5b61146a858286016113ce565b9150509250929050565b60008115159050919050565b61148981611474565b82525050565b60006020820190506114a46000830184611480565b92915050565b60007fffffffff0000000000000000000000000000000000000000000000000000000082169050919050565b6114df816114aa565b81146114ea57600080fd5b50565b6000813590506114fc816114d6565b92915050565b600060208284031215611518576115176112ac565b5b6000611526848285016114ed565b91505092915050565b6115388161126e565b811461154357600080fd5b50565b6000813590506115558161152f565b92915050565b600060208284031215611571576115706112ac565b5b600061157f84828501611546565b91505092915050565b600073ffffffffffffffffffffffffffffffffffffffff82169050919050565b60006115b382611588565b9050919050565b6115c3816115a8565b81146115ce57600080fd5b50565b6000813590506115e0816115ba565b92915050565b6000602082840312156115fc576115fb6112ac565b5b600061160a848285016115d1565b91505092915050565b600081519050919050565b600082825260208201905092915050565b60005b8381101561164d578082015181840152602081019050611632565b8381111561165c576000848401525b50505050565b600061166d82611613565b611677818561161e565b935061168781856020860161162f565b611690816112c0565b840191505092915050565b600060408201905081810360008301526116b58185611662565b905081810360208301526116c98184611662565b90509392505050565b600080604083850312156116e9576116e86112ac565b5b60006116f785828601611546565b9250506020611708858286016115d1565b9150509250929050565b600082825260208201905092915050565b600061172e82611613565b6117388185611712565b935061174881856020860161162f565b611751816112c0565b840191505092915050565b600060408301600083015184820360008601526117798282611723565b915050602083015184820360208601526117938282611723565b9150508091505092915050565b600060208201905081810360008301526117ba818461175c565b905092915050565b7f4e487b7100000000000000000000000000000000000000000000000000000000600052602260045260246000fd5b6000600282049050600182168061180957607f821691505b6020821081141561181d5761181c6117c2565b5b50919050565b7f416363657373436f6e74726f6c3a2063616e206f6e6c792072656e6f756e636560008201527f20726f6c657320666f722073656c660000000000000000000000000000000000602082015250565b600061187f602f8361161e565b915061188a82611823565b604082019050919050565b600060208201905081810360008301526118ae81611872565b9050919050565b600081905092915050565b7f416363657373436f6e74726f6c3a206163636f756e7420000000000000000000600082015250565b60006118f66017836118b5565b9150611901826118c0565b601782019050919050565b600061191782611613565b61192181856118b5565b935061193181856020860161162f565b80840191505092915050565b7f206973206d697373696e6720726f6c6520000000000000000000000000000000600082015250565b60006119736011836118b5565b915061197e8261193d565b601182019050919050565b6000611994826118e9565b91506119a0828561190c565b91506119ab82611966565b91506119b7828461190c565b91508190509392505050565b600060208201905081810360008301526119dd8184611662565b905092915050565b6000819050919050565b7f4e487b7100000000000000000000000000000000000000000000000000000000600052601160045260246000fd5b6000611a29826119e5565b9150611a34836119e5565b9250817fffffffffffffffffffffffffffffffffffffffffffffffffffffffffffffffff0483118215151615611a6d57611a6c6119ef565b5b828202905092915050565b6000611a83826119e5565b9150611a8e836119e5565b9250827fffffffffffffffffffffffffffffffffffffffffffffffffffffffffffffffff03821115611ac357611ac26119ef565b5b828201905092915050565b7f4e487b7100000000000000000000000000000000000000000000000000000000600052603260045260246000fd5b6000611b08826119e5565b91506000821415611b1c57611b1b6119ef565b5b600182039050919050565b7f537472696e67733a20686578206c656e67746820696e73756666696369656e74600082015250565b6000611b5d60208361161e565b9150611b6882611b27565b602082019050919050565b60006020820190508181036000830152611b8c81611b50565b905091905056fea2646970667358221220b50e12cc1b6211407cf09542d7020d74ffcba933c3800439035b76e90a8e598964736f6c634300080b0033",
  "immutableReferences": {},
  "source": "// SPDX-License-Identifier: GPL-3.0\n\npragma solidity >=0.7.0 <0.9.0;\n\nimport \"@openzeppelin/contracts/access/AccessControl.sol\";\n\ncontract MainContract is AccessControl {\n\n    // struct Bottle {\n    //     address mintedBy;\n    //     uint64 mintedAt;\n    //     string name;\n    //     string description;\n    //     address currentOwner;\n    //     string imgHash;\n    //     bool available;\n    // }\n\n    struct Cellar {\n        string name;\n        string description;\n    }\n\n    struct Shop {\n        string name;\n        string description;\n    }\n\n    bytes32 public constant CELLAR_ROLE = keccak256(\"CELLAR_ROLE\");\n    bytes32 public constant SHOP_ROLE = keccak256(\"SHOP_ROLE\");\n\n    mapping (address => Cellar) public cellars;\n    mapping (address => Shop) public shops;\n\n    // Bottle[] bottleList;\n    // mapping(string => bool) _bottleExists;\n\n    // constructor() ERC721(\"Wine\", \"WINE\") {}\n\n\n    modifier onlyCellar() {\n        require(hasRole(CELLAR_ROLE, msg.sender), \"Only Cellar\");\n        _;\n    }\n\n    modifier onlyShop() {\n        require(hasRole(SHOP_ROLE, msg.sender), \"Only Shop\");\n        _;\n    }\n\n// ERC721 and AccessControl includes \"supportsInterface\" so in order to commpile we need to override it. \n// https://forum.openzeppelin.com/t/derived-contract-must-override-function-supportsinterface/6315\n\n    // function supportsInterface(bytes4 interfaceId) public view virtual override(ERC721, AccessControl) returns (bool) {\n    //     return super.supportsInterface(interfaceId);\n    // }\n\n    function addNewCellar(string memory _name, string memory _description) public returns(bool) {\n        cellars[msg.sender].name = _name;\n        cellars[msg.sender].description = _description;\n        _setupRole(CELLAR_ROLE, msg.sender);\n        return true;\n    }\n\n    function addNewShop(string memory _name, string memory _description) public returns(bool) {\n        shops[msg.sender].name = _name;\n        shops[msg.sender].description = _description;\n        _setupRole(SHOP_ROLE, msg.sender);\n        return true;\n    }\n\n    function getCellarByAddress(address _address) public view returns(Cellar memory){\n        return cellars[_address];\n    }\n\n    function getCellar() public view returns(Cellar memory){\n        return cellars[msg.sender];\n    }\n\n    // function getBottleInfo(uint _tokenid) public view returns(Bottle memory) {\n    //     return  bottleList[_tokenid];\n    // }\n\n//     function mint(string memory brand, string memory model) public {\n//         address newBottle = address(new WineAsset(brand, model, msg.sender));            \n//         require(!_bottleExist[newBottle]);\n//         uint _id = wineList.push(newBottle);\n//         _mint(msg.sender, _id);\n//         _bottleExists[newBottle] = true;\n//    }\n}\n",
  "sourcePath": "D:\\Projects\\BSM\\safewine\\contracts\\MainContract.sol",
  "compiler": {
    "name": "solc",
    "version": "0.8.11+commit.d7f03943.Emscripten.clang"
  },
  "schemaVersion": "3.4.4",
  "updatedAt": "2022-01-19T10:24:28.865Z",
  "devdoc": {
    "kind": "dev",
    "methods": {
      "getRoleAdmin(bytes32)": {
        "details": "Returns the admin role that controls `role`. See {grantRole} and {revokeRole}. To change a role's admin, use {_setRoleAdmin}."
      },
      "grantRole(bytes32,address)": {
        "details": "Grants `role` to `account`. If `account` had not been already granted `role`, emits a {RoleGranted} event. Requirements: - the caller must have ``role``'s admin role."
      },
      "hasRole(bytes32,address)": {
        "details": "Returns `true` if `account` has been granted `role`."
      },
      "renounceRole(bytes32,address)": {
        "details": "Revokes `role` from the calling account. Roles are often managed via {grantRole} and {revokeRole}: this function's purpose is to provide a mechanism for accounts to lose their privileges if they are compromised (such as when a trusted device is misplaced). If the calling account had been revoked `role`, emits a {RoleRevoked} event. Requirements: - the caller must be `account`."
      },
      "revokeRole(bytes32,address)": {
        "details": "Revokes `role` from `account`. If `account` had been granted `role`, emits a {RoleRevoked} event. Requirements: - the caller must have ``role``'s admin role."
      },
      "supportsInterface(bytes4)": {
        "details": "See {IERC165-supportsInterface}."
      }
    },
    "version": 1
  },
  "userdoc": {
    "kind": "user",
    "methods": {},
    "version": 1
  }
}