{
  "contractName": "Token",
  "abi": [
    {
      "inputs": [],
      "stateMutability": "nonpayable",
      "type": "constructor"
    },
    {
      "anonymous": false,
      "inputs": [
        {
          "indexed": true,
          "internalType": "address",
          "name": "owner",
          "type": "address"
        },
        {
          "indexed": true,
          "internalType": "address",
          "name": "approved",
          "type": "address"
        },
        {
          "indexed": true,
          "internalType": "uint256",
          "name": "tokenId",
          "type": "uint256"
        }
      ],
      "name": "Approval",
      "type": "event"
    },
    {
      "anonymous": false,
      "inputs": [
        {
          "indexed": true,
          "internalType": "address",
          "name": "owner",
          "type": "address"
        },
        {
          "indexed": true,
          "internalType": "address",
          "name": "operator",
          "type": "address"
        },
        {
          "indexed": false,
          "internalType": "bool",
          "name": "approved",
          "type": "bool"
        }
      ],
      "name": "ApprovalForAll",
      "type": "event"
    },
    {
      "anonymous": false,
      "inputs": [
        {
          "indexed": true,
          "internalType": "address",
          "name": "from",
          "type": "address"
        },
        {
          "indexed": true,
          "internalType": "address",
          "name": "to",
          "type": "address"
        },
        {
          "indexed": true,
          "internalType": "uint256",
          "name": "tokenId",
          "type": "uint256"
        }
      ],
      "name": "Transfer",
      "type": "event"
    },
    {
      "inputs": [
        {
          "internalType": "address",
          "name": "to",
          "type": "address"
        },
        {
          "internalType": "uint256",
          "name": "tokenId",
          "type": "uint256"
        }
      ],
      "name": "approve",
      "outputs": [],
      "stateMutability": "nonpayable",
      "type": "function"
    },
    {
      "inputs": [
        {
          "internalType": "address",
          "name": "owner",
          "type": "address"
        }
      ],
      "name": "balanceOf",
      "outputs": [
        {
          "internalType": "uint256",
          "name": "",
          "type": "uint256"
        }
      ],
      "stateMutability": "view",
      "type": "function"
    },
    {
      "inputs": [
        {
          "internalType": "address",
          "name": "",
          "type": "address"
        }
      ],
      "name": "bottleList",
      "outputs": [
        {
          "internalType": "address",
          "name": "mintedBy",
          "type": "address"
        },
        {
          "internalType": "uint64",
          "name": "mintedAt",
          "type": "uint64"
        },
        {
          "internalType": "string",
          "name": "name",
          "type": "string"
        },
        {
          "internalType": "string",
          "name": "description",
          "type": "string"
        },
        {
          "internalType": "address",
          "name": "currentOwner",
          "type": "address"
        },
        {
          "internalType": "string",
          "name": "imgHash",
          "type": "string"
        },
        {
          "internalType": "bool",
          "name": "available",
          "type": "bool"
        }
      ],
      "stateMutability": "view",
      "type": "function"
    },
    {
      "inputs": [
        {
          "internalType": "uint256",
          "name": "tokenId",
          "type": "uint256"
        }
      ],
      "name": "getApproved",
      "outputs": [
        {
          "internalType": "address",
          "name": "",
          "type": "address"
        }
      ],
      "stateMutability": "view",
      "type": "function"
    },
    {
      "inputs": [
        {
          "internalType": "address",
          "name": "owner",
          "type": "address"
        },
        {
          "internalType": "address",
          "name": "operator",
          "type": "address"
        }
      ],
      "name": "isApprovedForAll",
      "outputs": [
        {
          "internalType": "bool",
          "name": "",
          "type": "bool"
        }
      ],
      "stateMutability": "view",
      "type": "function"
    },
    {
      "inputs": [],
      "name": "name",
      "outputs": [
        {
          "internalType": "string",
          "name": "",
          "type": "string"
        }
      ],
      "stateMutability": "view",
      "type": "function"
    },
    {
      "inputs": [
        {
          "internalType": "uint256",
          "name": "tokenId",
          "type": "uint256"
        }
      ],
      "name": "ownerOf",
      "outputs": [
        {
          "internalType": "address",
          "name": "",
          "type": "address"
        }
      ],
      "stateMutability": "view",
      "type": "function"
    },
    {
      "inputs": [
        {
          "internalType": "address",
          "name": "from",
          "type": "address"
        },
        {
          "internalType": "address",
          "name": "to",
          "type": "address"
        },
        {
          "internalType": "uint256",
          "name": "tokenId",
          "type": "uint256"
        }
      ],
      "name": "safeTransferFrom",
      "outputs": [],
      "stateMutability": "nonpayable",
      "type": "function"
    },
    {
      "inputs": [
        {
          "internalType": "address",
          "name": "from",
          "type": "address"
        },
        {
          "internalType": "address",
          "name": "to",
          "type": "address"
        },
        {
          "internalType": "uint256",
          "name": "tokenId",
          "type": "uint256"
        },
        {
          "internalType": "bytes",
          "name": "_data",
          "type": "bytes"
        }
      ],
      "name": "safeTransferFrom",
      "outputs": [],
      "stateMutability": "nonpayable",
      "type": "function"
    },
    {
      "inputs": [
        {
          "internalType": "address",
          "name": "operator",
          "type": "address"
        },
        {
          "internalType": "bool",
          "name": "approved",
          "type": "bool"
        }
      ],
      "name": "setApprovalForAll",
      "outputs": [],
      "stateMutability": "nonpayable",
      "type": "function"
    },
    {
      "inputs": [
        {
          "internalType": "bytes4",
          "name": "interfaceId",
          "type": "bytes4"
        }
      ],
      "name": "supportsInterface",
      "outputs": [
        {
          "internalType": "bool",
          "name": "",
          "type": "bool"
        }
      ],
      "stateMutability": "view",
      "type": "function"
    },
    {
      "inputs": [],
      "name": "symbol",
      "outputs": [
        {
          "internalType": "string",
          "name": "",
          "type": "string"
        }
      ],
      "stateMutability": "view",
      "type": "function"
    },
    {
      "inputs": [
        {
          "internalType": "uint256",
          "name": "tokenId",
          "type": "uint256"
        }
      ],
      "name": "tokenURI",
      "outputs": [
        {
          "internalType": "string",
          "name": "",
          "type": "string"
        }
      ],
      "stateMutability": "view",
      "type": "function"
    },
    {
      "inputs": [
        {
          "internalType": "address",
          "name": "from",
          "type": "address"
        },
        {
          "internalType": "address",
          "name": "to",
          "type": "address"
        },
        {
          "internalType": "uint256",
          "name": "tokenId",
          "type": "uint256"
        }
      ],
      "name": "transferFrom",
      "outputs": [],
      "stateMutability": "nonpayable",
      "type": "function"
    },
    {
      "inputs": [
        {
          "internalType": "string",
          "name": "brand",
          "type": "string"
        },
        {
          "internalType": "string",
          "name": "model",
          "type": "string"
        }
      ],
      "name": "mint",
      "outputs": [],
      "stateMutability": "nonpayable",
      "type": "function"
    }
  ],
  "bytecode": "0x60806040523480156200001157600080fd5b506040518060400160405280600481526020017f57696e65000000000000000000000000000000000000000000000000000000008152506040518060400160405280600481526020017f57494e4500000000000000000000000000000000000000000000000000000000815250816000908051906020019062000096929190620000b8565b508060019080519060200190620000af929190620000b8565b505050620001cd565b828054620000c69062000197565b90600052602060002090601f016020900481019282620000ea576000855562000136565b82601f106200010557805160ff191683800117855562000136565b8280016001018555821562000136579182015b828111156200013557825182559160200191906001019062000118565b5b50905062000145919062000149565b5090565b5b80821115620001645760008160009055506001016200014a565b5090565b7f4e487b7100000000000000000000000000000000000000000000000000000000600052602260045260246000fd5b60006002820490506001821680620001b057607f821691505b60208210811415620001c757620001c662000168565b5b50919050565b61283680620001dd6000396000f3fe608060405234801561001057600080fd5b50600436106100f55760003560e01c806370a0823111610097578063b88d4fde11610066578063b88d4fde14610282578063c87b56dd1461029e578063d23ae42c146102ce578063e985e9c514610304576100f5565b806370a08231146101fc5780638aa0fdad1461022c57806395d89b4114610248578063a22cb46514610266576100f5565b8063095ea7b3116100d3578063095ea7b31461017857806323b872dd1461019457806342842e0e146101b05780636352211e146101cc576100f5565b806301ffc9a7146100fa57806306fdde031461012a578063081812fc14610148575b600080fd5b610114600480360381019061010f91906116d1565b610334565b6040516101219190611719565b60405180910390f35b610132610416565b60405161013f91906117cd565b60405180910390f35b610162600480360381019061015d9190611825565b6104a8565b60405161016f9190611893565b60405180910390f35b610192600480360381019061018d91906118da565b61052d565b005b6101ae60048036038101906101a9919061191a565b610645565b005b6101ca60048036038101906101c5919061191a565b6106a5565b005b6101e660048036038101906101e19190611825565b6106c5565b6040516101f39190611893565b60405180910390f35b6102166004803603810190610211919061196d565b610777565b60405161022391906119a9565b60405180910390f35b61024660048036038101906102419190611af9565b61082f565b005b610250610833565b60405161025d91906117cd565b60405180910390f35b610280600480360381019061027b9190611b9d565b6108c5565b005b61029c60048036038101906102979190611c7e565b6108db565b005b6102b860048036038101906102b39190611825565b61093d565b6040516102c591906117cd565b60405180910390f35b6102e860048036038101906102e3919061196d565b6109e4565b6040516102fb9796959493929190611d24565b60405180910390f35b61031e60048036038101906103199190611da8565b610c1f565b60405161032b9190611719565b60405180910390f35b60007f80ac58cd000000000000000000000000000000000000000000000000000000007bffffffffffffffffffffffffffffffffffffffffffffffffffffffff1916827bffffffffffffffffffffffffffffffffffffffffffffffffffffffff191614806103ff57507f5b5e139f000000000000000000000000000000000000000000000000000000007bffffffffffffffffffffffffffffffffffffffffffffffffffffffff1916827bffffffffffffffffffffffffffffffffffffffffffffffffffffffff1916145b8061040f575061040e82610cb3565b5b9050919050565b60606000805461042590611e17565b80601f016020809104026020016040519081016040528092919081815260200182805461045190611e17565b801561049e5780601f106104735761010080835404028352916020019161049e565b820191906000526020600020905b81548152906001019060200180831161048157829003601f168201915b5050505050905090565b60006104b382610d1d565b6104f2576040517f08c379a00000000000000000000000000000000000000000000000000000000081526004016104e990611ebb565b60405180910390fd5b6004600083815260200190815260200160002060009054906101000a900473ffffffffffffffffffffffffffffffffffffffff169050919050565b6000610538826106c5565b90508073ffffffffffffffffffffffffffffffffffffffff168373ffffffffffffffffffffffffffffffffffffffff1614156105a9576040517f08c379a00000000000000000000000000000000000000000000000000000000081526004016105a090611f4d565b60405180910390fd5b8073ffffffffffffffffffffffffffffffffffffffff166105c8610d89565b73ffffffffffffffffffffffffffffffffffffffff1614806105f757506105f6816105f1610d89565b610c1f565b5b610636576040517f08c379a000000000000000000000000000000000000000000000000000000000815260040161062d90611fdf565b60405180910390fd5b6106408383610d91565b505050565b610656610650610d89565b82610e4a565b610695576040517f08c379a000000000000000000000000000000000000000000000000000000000815260040161068c90612071565b60405180910390fd5b6106a0838383610f28565b505050565b6106c0838383604051806020016040528060008152506108db565b505050565b6000806002600084815260200190815260200160002060009054906101000a900473ffffffffffffffffffffffffffffffffffffffff169050600073ffffffffffffffffffffffffffffffffffffffff168173ffffffffffffffffffffffffffffffffffffffff16141561076e576040517f08c379a000000000000000000000000000000000000000000000000000000000815260040161076590612103565b60405180910390fd5b80915050919050565b60008073ffffffffffffffffffffffffffffffffffffffff168273ffffffffffffffffffffffffffffffffffffffff1614156107e8576040517f08c379a00000000000000000000000000000000000000000000000000000000081526004016107df90612195565b60405180910390fd5b600360008373ffffffffffffffffffffffffffffffffffffffff1673ffffffffffffffffffffffffffffffffffffffff168152602001908152602001600020549050919050565b5050565b60606001805461084290611e17565b80601f016020809104026020016040519081016040528092919081815260200182805461086e90611e17565b80156108bb5780601f10610890576101008083540402835291602001916108bb565b820191906000526020600020905b81548152906001019060200180831161089e57829003601f168201915b5050505050905090565b6108d76108d0610d89565b8383611184565b5050565b6108ec6108e6610d89565b83610e4a565b61092b576040517f08c379a000000000000000000000000000000000000000000000000000000000815260040161092290612071565b60405180910390fd5b610937848484846112f1565b50505050565b606061094882610d1d565b610987576040517f08c379a000000000000000000000000000000000000000000000000000000000815260040161097e90612227565b60405180910390fd5b600061099161134d565b905060008151116109b157604051806020016040528060008152506109dc565b806109bb84611364565b6040516020016109cc929190612283565b6040516020818303038152906040525b915050919050565b60066020528060005260406000206000915090508060000160009054906101000a900473ffffffffffffffffffffffffffffffffffffffff16908060000160149054906101000a900467ffffffffffffffff1690806001018054610a4790611e17565b80601f0160208091040260200160405190810160405280929190818152602001828054610a7390611e17565b8015610ac05780601f10610a9557610100808354040283529160200191610ac0565b820191906000526020600020905b815481529060010190602001808311610aa357829003601f168201915b505050505090806002018054610ad590611e17565b80601f0160208091040260200160405190810160405280929190818152602001828054610b0190611e17565b8015610b4e5780601f10610b2357610100808354040283529160200191610b4e565b820191906000526020600020905b815481529060010190602001808311610b3157829003601f168201915b5050505050908060030160009054906101000a900473ffffffffffffffffffffffffffffffffffffffff1690806004018054610b8990611e17565b80601f0160208091040260200160405190810160405280929190818152602001828054610bb590611e17565b8015610c025780601f10610bd757610100808354040283529160200191610c02565b820191906000526020600020905b815481529060010190602001808311610be557829003601f168201915b5050505050908060050160009054906101000a900460ff16905087565b6000600560008473ffffffffffffffffffffffffffffffffffffffff1673ffffffffffffffffffffffffffffffffffffffff16815260200190815260200160002060008373ffffffffffffffffffffffffffffffffffffffff1673ffffffffffffffffffffffffffffffffffffffff16815260200190815260200160002060009054906101000a900460ff16905092915050565b60007f01ffc9a7000000000000000000000000000000000000000000000000000000007bffffffffffffffffffffffffffffffffffffffffffffffffffffffff1916827bffffffffffffffffffffffffffffffffffffffffffffffffffffffff1916149050919050565b60008073ffffffffffffffffffffffffffffffffffffffff166002600084815260200190815260200160002060009054906101000a900473ffffffffffffffffffffffffffffffffffffffff1673ffffffffffffffffffffffffffffffffffffffff1614159050919050565b600033905090565b816004600083815260200190815260200160002060006101000a81548173ffffffffffffffffffffffffffffffffffffffff021916908373ffffffffffffffffffffffffffffffffffffffff160217905550808273ffffffffffffffffffffffffffffffffffffffff16610e04836106c5565b73ffffffffffffffffffffffffffffffffffffffff167f8c5be1e5ebec7d5bd14f71427d1e84f3dd0314c0f7b2291e5b200ac8c7c3b92560405160405180910390a45050565b6000610e5582610d1d565b610e94576040517f08c379a0000000000000000000000000000000000000000000000000000000008152600401610e8b90612319565b60405180910390fd5b6000610e9f836106c5565b90508073ffffffffffffffffffffffffffffffffffffffff168473ffffffffffffffffffffffffffffffffffffffff161480610f0e57508373ffffffffffffffffffffffffffffffffffffffff16610ef6846104a8565b73ffffffffffffffffffffffffffffffffffffffff16145b80610f1f5750610f1e8185610c1f565b5b91505092915050565b8273ffffffffffffffffffffffffffffffffffffffff16610f48826106c5565b73ffffffffffffffffffffffffffffffffffffffff1614610f9e576040517f08c379a0000000000000000000000000000000000000000000000000000000008152600401610f95906123ab565b60405180910390fd5b600073ffffffffffffffffffffffffffffffffffffffff168273ffffffffffffffffffffffffffffffffffffffff16141561100e576040517f08c379a00000000000000000000000000000000000000000000000000000000081526004016110059061243d565b60405180910390fd5b6110198383836114c5565b611024600082610d91565b6001600360008573ffffffffffffffffffffffffffffffffffffffff1673ffffffffffffffffffffffffffffffffffffffff1681526020019081526020016000206000828254611074919061248c565b925050819055506001600360008473ffffffffffffffffffffffffffffffffffffffff1673ffffffffffffffffffffffffffffffffffffffff16815260200190815260200160002060008282546110cb91906124c0565b92505081905550816002600083815260200190815260200160002060006101000a81548173ffffffffffffffffffffffffffffffffffffffff021916908373ffffffffffffffffffffffffffffffffffffffff160217905550808273ffffffffffffffffffffffffffffffffffffffff168473ffffffffffffffffffffffffffffffffffffffff167fddf252ad1be2c89b69c2b068fc378daa952ba7f163c4a11628f55a4df523b3ef60405160405180910390a4505050565b8173ffffffffffffffffffffffffffffffffffffffff168373ffffffffffffffffffffffffffffffffffffffff1614156111f3576040517f08c379a00000000000000000000000000000000000000000000000000000000081526004016111ea90612562565b60405180910390fd5b80600560008573ffffffffffffffffffffffffffffffffffffffff1673ffffffffffffffffffffffffffffffffffffffff16815260200190815260200160002060008473ffffffffffffffffffffffffffffffffffffffff1673ffffffffffffffffffffffffffffffffffffffff16815260200190815260200160002060006101000a81548160ff0219169083151502179055508173ffffffffffffffffffffffffffffffffffffffff168373ffffffffffffffffffffffffffffffffffffffff167f17307eab39ab6107e8899845ad3d59bd9653f200f220920489ca2b5937696c31836040516112e49190611719565b60405180910390a3505050565b6112fc848484610f28565b611308848484846114ca565b611347576040517f08c379a000000000000000000000000000000000000000000000000000000000815260040161133e906125f4565b60405180910390fd5b50505050565b606060405180602001604052806000815250905090565b606060008214156113ac576040518060400160405280600181526020017f300000000000000000000000000000000000000000000000000000000000000081525090506114c0565b600082905060005b600082146113de5780806113c790612614565b915050600a826113d7919061268c565b91506113b4565b60008167ffffffffffffffff8111156113fa576113f96119ce565b5b6040519080825280601f01601f19166020018201604052801561142c5781602001600182028036833780820191505090505b5090505b600085146114b957600182611445919061248c565b9150600a8561145491906126bd565b603061146091906124c0565b60f81b818381518110611476576114756126ee565b5b60200101907effffffffffffffffffffffffffffffffffffffffffffffffffffffffffffff1916908160001a905350600a856114b2919061268c565b9450611430565b8093505050505b919050565b505050565b60006114eb8473ffffffffffffffffffffffffffffffffffffffff16611652565b15611645578373ffffffffffffffffffffffffffffffffffffffff1663150b7a02611514610d89565b8786866040518563ffffffff1660e01b81526004016115369493929190612772565b6020604051808303816000875af192505050801561157257506040513d601f19601f8201168201806040525081019061156f91906127d3565b60015b6115f5573d80600081146115a2576040519150601f19603f3d011682016040523d82523d6000602084013e6115a7565b606091505b506000815114156115ed576040517f08c379a00000000000000000000000000000000000000000000000000000000081526004016115e4906125f4565b60405180910390fd5b805181602001fd5b63150b7a0260e01b7bffffffffffffffffffffffffffffffffffffffffffffffffffffffff1916817bffffffffffffffffffffffffffffffffffffffffffffffffffffffff19161491505061164a565b600190505b949350505050565b600080823b905060008111915050919050565b6000604051905090565b600080fd5b600080fd5b60007fffffffff0000000000000000000000000000000000000000000000000000000082169050919050565b6116ae81611679565b81146116b957600080fd5b50565b6000813590506116cb816116a5565b92915050565b6000602082840312156116e7576116e661166f565b5b60006116f5848285016116bc565b91505092915050565b60008115159050919050565b611713816116fe565b82525050565b600060208201905061172e600083018461170a565b92915050565b600081519050919050565b600082825260208201905092915050565b60005b8381101561176e578082015181840152602081019050611753565b8381111561177d576000848401525b50505050565b6000601f19601f8301169050919050565b600061179f82611734565b6117a9818561173f565b93506117b9818560208601611750565b6117c281611783565b840191505092915050565b600060208201905081810360008301526117e78184611794565b905092915050565b6000819050919050565b611802816117ef565b811461180d57600080fd5b50565b60008135905061181f816117f9565b92915050565b60006020828403121561183b5761183a61166f565b5b600061184984828501611810565b91505092915050565b600073ffffffffffffffffffffffffffffffffffffffff82169050919050565b600061187d82611852565b9050919050565b61188d81611872565b82525050565b60006020820190506118a86000830184611884565b92915050565b6118b781611872565b81146118c257600080fd5b50565b6000813590506118d4816118ae565b92915050565b600080604083850312156118f1576118f061166f565b5b60006118ff858286016118c5565b925050602061191085828601611810565b9150509250929050565b6000806000606084860312156119335761193261166f565b5b6000611941868287016118c5565b9350506020611952868287016118c5565b925050604061196386828701611810565b9150509250925092565b6000602082840312156119835761198261166f565b5b6000611991848285016118c5565b91505092915050565b6119a3816117ef565b82525050565b60006020820190506119be600083018461199a565b92915050565b600080fd5b600080fd5b7f4e487b7100000000000000000000000000000000000000000000000000000000600052604160045260246000fd5b611a0682611783565b810181811067ffffffffffffffff82111715611a2557611a246119ce565b5b80604052505050565b6000611a38611665565b9050611a4482826119fd565b919050565b600067ffffffffffffffff821115611a6457611a636119ce565b5b611a6d82611783565b9050602081019050919050565b82818337600083830152505050565b6000611a9c611a9784611a49565b611a2e565b905082815260208101848484011115611ab857611ab76119c9565b5b611ac3848285611a7a565b509392505050565b600082601f830112611ae057611adf6119c4565b5b8135611af0848260208601611a89565b91505092915050565b60008060408385031215611b1057611b0f61166f565b5b600083013567ffffffffffffffff811115611b2e57611b2d611674565b5b611b3a85828601611acb565b925050602083013567ffffffffffffffff811115611b5b57611b5a611674565b5b611b6785828601611acb565b9150509250929050565b611b7a816116fe565b8114611b8557600080fd5b50565b600081359050611b9781611b71565b92915050565b60008060408385031215611bb457611bb361166f565b5b6000611bc2858286016118c5565b9250506020611bd385828601611b88565b9150509250929050565b600067ffffffffffffffff821115611bf857611bf76119ce565b5b611c0182611783565b9050602081019050919050565b6000611c21611c1c84611bdd565b611a2e565b905082815260208101848484011115611c3d57611c3c6119c9565b5b611c48848285611a7a565b509392505050565b600082601f830112611c6557611c646119c4565b5b8135611c75848260208601611c0e565b91505092915050565b60008060008060808587031215611c9857611c9761166f565b5b6000611ca6878288016118c5565b9450506020611cb7878288016118c5565b9350506040611cc887828801611810565b925050606085013567ffffffffffffffff811115611ce957611ce8611674565b5b611cf587828801611c50565b91505092959194509250565b600067ffffffffffffffff82169050919050565b611d1e81611d01565b82525050565b600060e082019050611d39600083018a611884565b611d466020830189611d15565b8181036040830152611d588188611794565b90508181036060830152611d6c8187611794565b9050611d7b6080830186611884565b81810360a0830152611d8d8185611794565b9050611d9c60c083018461170a565b98975050505050505050565b60008060408385031215611dbf57611dbe61166f565b5b6000611dcd858286016118c5565b9250506020611dde858286016118c5565b9150509250929050565b7f4e487b7100000000000000000000000000000000000000000000000000000000600052602260045260246000fd5b60006002820490506001821680611e2f57607f821691505b60208210811415611e4357611e42611de8565b5b50919050565b7f4552433732313a20617070726f76656420717565727920666f72206e6f6e657860008201527f697374656e7420746f6b656e0000000000000000000000000000000000000000602082015250565b6000611ea5602c8361173f565b9150611eb082611e49565b604082019050919050565b60006020820190508181036000830152611ed481611e98565b9050919050565b7f4552433732313a20617070726f76616c20746f2063757272656e74206f776e6560008201527f7200000000000000000000000000000000000000000000000000000000000000602082015250565b6000611f3760218361173f565b9150611f4282611edb565b604082019050919050565b60006020820190508181036000830152611f6681611f2a565b9050919050565b7f4552433732313a20617070726f76652063616c6c6572206973206e6f74206f7760008201527f6e6572206e6f7220617070726f76656420666f7220616c6c0000000000000000602082015250565b6000611fc960388361173f565b9150611fd482611f6d565b604082019050919050565b60006020820190508181036000830152611ff881611fbc565b9050919050565b7f4552433732313a207472616e736665722063616c6c6572206973206e6f74206f60008201527f776e6572206e6f7220617070726f766564000000000000000000000000000000602082015250565b600061205b60318361173f565b915061206682611fff565b604082019050919050565b6000602082019050818103600083015261208a8161204e565b9050919050565b7f4552433732313a206f776e657220717565727920666f72206e6f6e657869737460008201527f656e7420746f6b656e0000000000000000000000000000000000000000000000602082015250565b60006120ed60298361173f565b91506120f882612091565b604082019050919050565b6000602082019050818103600083015261211c816120e0565b9050919050565b7f4552433732313a2062616c616e636520717565727920666f7220746865207a6560008201527f726f206164647265737300000000000000000000000000000000000000000000602082015250565b600061217f602a8361173f565b915061218a82612123565b604082019050919050565b600060208201905081810360008301526121ae81612172565b9050919050565b7f4552433732314d657461646174613a2055524920717565727920666f72206e6f60008201527f6e6578697374656e7420746f6b656e0000000000000000000000000000000000602082015250565b6000612211602f8361173f565b915061221c826121b5565b604082019050919050565b6000602082019050818103600083015261224081612204565b9050919050565b600081905092915050565b600061225d82611734565b6122678185612247565b9350612277818560208601611750565b80840191505092915050565b600061228f8285612252565b915061229b8284612252565b91508190509392505050565b7f4552433732313a206f70657261746f7220717565727920666f72206e6f6e657860008201527f697374656e7420746f6b656e0000000000000000000000000000000000000000602082015250565b6000612303602c8361173f565b915061230e826122a7565b604082019050919050565b60006020820190508181036000830152612332816122f6565b9050919050565b7f4552433732313a207472616e73666572206f6620746f6b656e2074686174206960008201527f73206e6f74206f776e0000000000000000000000000000000000000000000000602082015250565b600061239560298361173f565b91506123a082612339565b604082019050919050565b600060208201905081810360008301526123c481612388565b9050919050565b7f4552433732313a207472616e7366657220746f20746865207a65726f2061646460008201527f7265737300000000000000000000000000000000000000000000000000000000602082015250565b600061242760248361173f565b9150612432826123cb565b604082019050919050565b600060208201905081810360008301526124568161241a565b9050919050565b7f4e487b7100000000000000000000000000000000000000000000000000000000600052601160045260246000fd5b6000612497826117ef565b91506124a2836117ef565b9250828210156124b5576124b461245d565b5b828203905092915050565b60006124cb826117ef565b91506124d6836117ef565b9250827fffffffffffffffffffffffffffffffffffffffffffffffffffffffffffffffff0382111561250b5761250a61245d565b5b828201905092915050565b7f4552433732313a20617070726f766520746f2063616c6c657200000000000000600082015250565b600061254c60198361173f565b915061255782612516565b602082019050919050565b6000602082019050818103600083015261257b8161253f565b9050919050565b7f4552433732313a207472616e7366657220746f206e6f6e20455243373231526560008201527f63656976657220696d706c656d656e7465720000000000000000000000000000602082015250565b60006125de60328361173f565b91506125e982612582565b604082019050919050565b6000602082019050818103600083015261260d816125d1565b9050919050565b600061261f826117ef565b91507fffffffffffffffffffffffffffffffffffffffffffffffffffffffffffffffff8214156126525761265161245d565b5b600182019050919050565b7f4e487b7100000000000000000000000000000000000000000000000000000000600052601260045260246000fd5b6000612697826117ef565b91506126a2836117ef565b9250826126b2576126b161265d565b5b828204905092915050565b60006126c8826117ef565b91506126d3836117ef565b9250826126e3576126e261265d565b5b828206905092915050565b7f4e487b7100000000000000000000000000000000000000000000000000000000600052603260045260246000fd5b600081519050919050565b600082825260208201905092915050565b60006127448261271d565b61274e8185612728565b935061275e818560208601611750565b61276781611783565b840191505092915050565b60006080820190506127876000830187611884565b6127946020830186611884565b6127a1604083018561199a565b81810360608301526127b38184612739565b905095945050505050565b6000815190506127cd816116a5565b92915050565b6000602082840312156127e9576127e861166f565b5b60006127f7848285016127be565b9150509291505056fea2646970667358221220354f73f3eb36e89f97e3a451a4ef3712d9b8d4efe36e2444912a9cf12a5e866164736f6c634300080b0033",
  "immutableReferences": {},
  "source": "// SPDX-License-Identifier: GPL-3.0\n\npragma solidity >=0.7.0 <0.9.0;\n\nimport \"@openzeppelin/contracts/token/ERC721/ERC721.sol\";\n\ncontract Token is ERC721 {\n\n    struct Bottle {\n        address mintedBy;\n        uint64 mintedAt;\n        string name;\n        string description;\n        address currentOwner;\n        string imgHash;\n        bool available;\n    }\n\n    mapping (address => Bottle) public bottleList;\n\n    // mapping(string => bool) _bottleExists;\n\n    constructor() ERC721(\"Wine\", \"WINE\") {}\n\n\n// ERC721 and AccessControl includes \"supportsInterface\" so in order to commpile we need to override it. \n// https://forum.openzeppelin.com/t/derived-contract-must-override-function-supportsinterface/6315\n\n    // function supportsInterface(bytes4 interfaceId) public view virtual override(ERC721, AccessControl) returns (bool) {\n    //     return super.supportsInterface(interfaceId);\n    // }\n\n\n    // function getBottleInfo(uint _tokenid) public view returns(Bottle memory) {\n    //     return  bottleList[_tokenid];\n    // }\n\n    function mint(string memory brand, string memory model) public {\n//         address newBottle = address(new WineAsset(brand, model, msg.sender));            \n//         require(!_bottleExist[newBottle]);\n//         uint _id = wineList.push(newBottle);\n//         _mint(msg.sender, _id);\n//         _bottleExists[newBottle] = true;\n    }\n}\n",
  "sourcePath": "D:\\Projects\\BSM\\safewine\\contracts\\Token.sol",
  "compiler": {
    "name": "solc",
    "version": "0.8.11+commit.d7f03943.Emscripten.clang"
  },
  "schemaVersion": "3.4.4",
  "updatedAt": "2022-01-19T10:24:28.879Z",
  "devdoc": {
    "kind": "dev",
    "methods": {
      "approve(address,uint256)": {
        "details": "See {IERC721-approve}."
      },
      "balanceOf(address)": {
        "details": "See {IERC721-balanceOf}."
      },
      "getApproved(uint256)": {
        "details": "See {IERC721-getApproved}."
      },
      "isApprovedForAll(address,address)": {
        "details": "See {IERC721-isApprovedForAll}."
      },
      "name()": {
        "details": "See {IERC721Metadata-name}."
      },
      "ownerOf(uint256)": {
        "details": "See {IERC721-ownerOf}."
      },
      "safeTransferFrom(address,address,uint256)": {
        "details": "See {IERC721-safeTransferFrom}."
      },
      "safeTransferFrom(address,address,uint256,bytes)": {
        "details": "See {IERC721-safeTransferFrom}."
      },
      "setApprovalForAll(address,bool)": {
        "details": "See {IERC721-setApprovalForAll}."
      },
      "supportsInterface(bytes4)": {
        "details": "See {IERC165-supportsInterface}."
      },
      "symbol()": {
        "details": "See {IERC721Metadata-symbol}."
      },
      "tokenURI(uint256)": {
        "details": "See {IERC721Metadata-tokenURI}."
      },
      "transferFrom(address,address,uint256)": {
        "details": "See {IERC721-transferFrom}."
      }
    },
    "version": 1
  },
  "userdoc": {
    "kind": "user",
    "methods": {},
    "version": 1
  }
}